{
  "_format": "hh-sol-artifact-1",
  "contractName": "Daydreams",
  "sourceName": "contracts/Daydreams.sol",
  "abi": [
    {
      "inputs": [
        {
          "internalType": "address",
          "name": "treasuryAddress",
          "type": "address"
        },
        {
          "internalType": "address",
          "name": "_proxyRegistryAddress",
          "type": "address"
        },
        {
          "internalType": "uint256",
          "name": "_total",
          "type": "uint256"
        }
      ],
      "stateMutability": "nonpayable",
      "type": "constructor"
    },
    {
      "anonymous": false,
      "inputs": [
        {
          "indexed": true,
          "internalType": "address",
          "name": "owner",
          "type": "address"
        },
        {
          "indexed": true,
          "internalType": "address",
          "name": "approved",
          "type": "address"
        },
        {
          "indexed": true,
          "internalType": "uint256",
          "name": "tokenId",
          "type": "uint256"
        }
      ],
      "name": "Approval",
      "type": "event"
    },
    {
      "anonymous": false,
      "inputs": [
        {
          "indexed": true,
          "internalType": "address",
          "name": "owner",
          "type": "address"
        },
        {
          "indexed": true,
          "internalType": "address",
          "name": "operator",
          "type": "address"
        },
        {
          "indexed": false,
          "internalType": "bool",
          "name": "approved",
          "type": "bool"
        }
      ],
      "name": "ApprovalForAll",
      "type": "event"
    },
    {
      "anonymous": false,
      "inputs": [
        {
          "indexed": true,
          "internalType": "address",
          "name": "previousOwner",
          "type": "address"
        },
        {
          "indexed": true,
          "internalType": "address",
          "name": "newOwner",
          "type": "address"
        }
      ],
      "name": "OwnershipTransferred",
      "type": "event"
    },
    {
      "anonymous": false,
      "inputs": [
        {
          "indexed": true,
          "internalType": "address",
          "name": "from",
          "type": "address"
        },
        {
          "indexed": true,
          "internalType": "address",
          "name": "to",
          "type": "address"
        },
        {
          "indexed": true,
          "internalType": "uint256",
          "name": "tokenId",
          "type": "uint256"
        }
      ],
      "name": "Transfer",
      "type": "event"
    },
    {
      "inputs": [
        {
          "internalType": "address",
          "name": "to",
          "type": "address"
        },
        {
          "internalType": "uint256",
          "name": "tokenId",
          "type": "uint256"
        }
      ],
      "name": "approve",
      "outputs": [],
      "stateMutability": "nonpayable",
      "type": "function"
    },
    {
      "inputs": [
        {
          "internalType": "address",
          "name": "owner",
          "type": "address"
        }
      ],
      "name": "balanceOf",
      "outputs": [
        {
          "internalType": "uint256",
          "name": "",
          "type": "uint256"
        }
      ],
      "stateMutability": "view",
      "type": "function"
    },
    {
      "inputs": [
        {
          "internalType": "uint256",
          "name": "tokenId",
          "type": "uint256"
        }
      ],
      "name": "getApproved",
      "outputs": [
        {
          "internalType": "address",
          "name": "",
          "type": "address"
        }
      ],
      "stateMutability": "view",
      "type": "function"
    },
    {
      "inputs": [],
      "name": "getBalance",
      "outputs": [
        {
          "internalType": "uint256",
          "name": "",
          "type": "uint256"
        }
      ],
      "stateMutability": "view",
      "type": "function"
    },
    {
      "inputs": [
        {
          "internalType": "address",
          "name": "owner",
          "type": "address"
        },
        {
          "internalType": "address",
          "name": "operator",
          "type": "address"
        }
      ],
      "name": "isApprovedForAll",
      "outputs": [
        {
          "internalType": "bool",
          "name": "",
          "type": "bool"
        }
      ],
      "stateMutability": "view",
      "type": "function"
    },
    {
      "inputs": [
        {
          "internalType": "uint256",
          "name": "qty",
          "type": "uint256"
        }
      ],
      "name": "mint",
      "outputs": [],
      "stateMutability": "payable",
      "type": "function"
    },
    {
      "inputs": [],
      "name": "name",
      "outputs": [
        {
          "internalType": "string",
          "name": "",
          "type": "string"
        }
      ],
      "stateMutability": "view",
      "type": "function"
    },
    {
      "inputs": [],
      "name": "owner",
      "outputs": [
        {
          "internalType": "address",
          "name": "",
          "type": "address"
        }
      ],
      "stateMutability": "view",
      "type": "function"
    },
    {
      "inputs": [
        {
          "internalType": "uint256",
          "name": "tokenId",
          "type": "uint256"
        }
      ],
      "name": "ownerOf",
      "outputs": [
        {
          "internalType": "address",
          "name": "",
          "type": "address"
        }
      ],
      "stateMutability": "view",
      "type": "function"
    },
    {
      "inputs": [],
      "name": "phase",
      "outputs": [
        {
          "internalType": "uint8",
          "name": "",
          "type": "uint8"
        }
      ],
      "stateMutability": "view",
      "type": "function"
    },
    {
      "inputs": [],
      "name": "proxyRegistryAddress",
      "outputs": [
        {
          "internalType": "address",
          "name": "",
          "type": "address"
        }
      ],
      "stateMutability": "view",
      "type": "function"
    },
    {
      "inputs": [],
      "name": "renounceOwnership",
      "outputs": [],
      "stateMutability": "nonpayable",
      "type": "function"
    },
    {
      "inputs": [],
      "name": "reservedSupply",
      "outputs": [
        {
          "internalType": "uint8",
          "name": "",
          "type": "uint8"
        }
      ],
      "stateMutability": "view",
      "type": "function"
    },
    {
      "inputs": [
        {
          "internalType": "address",
          "name": "from",
          "type": "address"
        },
        {
          "internalType": "address",
          "name": "to",
          "type": "address"
        },
        {
          "internalType": "uint256",
          "name": "tokenId",
          "type": "uint256"
        }
      ],
      "name": "safeTransferFrom",
      "outputs": [],
      "stateMutability": "nonpayable",
      "type": "function"
    },
    {
      "inputs": [
        {
          "internalType": "address",
          "name": "from",
          "type": "address"
        },
        {
          "internalType": "address",
          "name": "to",
          "type": "address"
        },
        {
          "internalType": "uint256",
          "name": "tokenId",
          "type": "uint256"
        },
        {
          "internalType": "bytes",
          "name": "_data",
          "type": "bytes"
        }
      ],
      "name": "safeTransferFrom",
      "outputs": [],
      "stateMutability": "nonpayable",
      "type": "function"
    },
    {
      "inputs": [
        {
          "internalType": "address",
          "name": "operator",
          "type": "address"
        },
        {
          "internalType": "bool",
          "name": "approved",
          "type": "bool"
        }
      ],
      "name": "setApprovalForAll",
      "outputs": [],
      "stateMutability": "nonpayable",
      "type": "function"
    },
    {
      "inputs": [
        {
          "internalType": "string",
          "name": "_baseURI",
          "type": "string"
        }
      ],
      "name": "setBaseURI",
      "outputs": [],
      "stateMutability": "nonpayable",
      "type": "function"
    },
    {
      "inputs": [
        {
          "internalType": "address",
          "name": "_proxyRegistryAddress",
          "type": "address"
        }
      ],
      "name": "setProxyRegistryAddress",
      "outputs": [],
      "stateMutability": "nonpayable",
      "type": "function"
    },
    {
      "inputs": [
        {
          "internalType": "uint8",
          "name": "value",
          "type": "uint8"
        }
      ],
      "name": "setphase",
      "outputs": [],
      "stateMutability": "nonpayable",
      "type": "function"
    },
    {
      "inputs": [
        {
          "internalType": "bytes4",
          "name": "interfaceId",
          "type": "bytes4"
        }
      ],
      "name": "supportsInterface",
      "outputs": [
        {
          "internalType": "bool",
          "name": "",
          "type": "bool"
        }
      ],
      "stateMutability": "view",
      "type": "function"
    },
    {
      "inputs": [],
      "name": "symbol",
      "outputs": [
        {
          "internalType": "string",
          "name": "",
          "type": "string"
        }
      ],
      "stateMutability": "view",
      "type": "function"
    },
    {
      "inputs": [
        {
          "internalType": "uint256",
          "name": "index",
          "type": "uint256"
        }
      ],
      "name": "tokenByIndex",
      "outputs": [
        {
          "internalType": "uint256",
          "name": "",
          "type": "uint256"
        }
      ],
      "stateMutability": "view",
      "type": "function"
    },
    {
      "inputs": [
        {
          "internalType": "address",
          "name": "owner",
          "type": "address"
        },
        {
          "internalType": "uint256",
          "name": "index",
          "type": "uint256"
        }
      ],
      "name": "tokenOfOwnerByIndex",
      "outputs": [
        {
          "internalType": "uint256",
          "name": "tokenId",
          "type": "uint256"
        }
      ],
      "stateMutability": "view",
      "type": "function"
    },
    {
      "inputs": [
        {
          "internalType": "uint256",
          "name": "_tokenId",
          "type": "uint256"
        }
      ],
      "name": "tokenURI",
      "outputs": [
        {
          "internalType": "string",
          "name": "",
          "type": "string"
        }
      ],
      "stateMutability": "view",
      "type": "function"
    },
    {
      "inputs": [],
      "name": "total",
      "outputs": [
        {
          "internalType": "uint256",
          "name": "",
          "type": "uint256"
        }
      ],
      "stateMutability": "view",
      "type": "function"
    },
    {
      "inputs": [],
      "name": "totalSupply",
      "outputs": [
        {
          "internalType": "uint256",
          "name": "",
          "type": "uint256"
        }
      ],
      "stateMutability": "view",
      "type": "function"
    },
    {
      "inputs": [
        {
          "internalType": "address",
          "name": "from",
          "type": "address"
        },
        {
          "internalType": "address",
          "name": "to",
          "type": "address"
        },
        {
          "internalType": "uint256",
          "name": "tokenId",
          "type": "uint256"
        }
      ],
      "name": "transferFrom",
      "outputs": [],
      "stateMutability": "nonpayable",
      "type": "function"
    },
    {
      "inputs": [
        {
          "internalType": "address",
          "name": "newOwner",
          "type": "address"
        }
      ],
      "name": "transferOwnership",
      "outputs": [],
      "stateMutability": "nonpayable",
      "type": "function"
    },
    {
      "inputs": [],
      "name": "withdraw",
      "outputs": [],
      "stateMutability": "nonpayable",
      "type": "function"
    },
    {
      "stateMutability": "payable",
      "type": "receive"
    }
  ],
  "bytecode": "0x60806040526001600960006101000a81548160ff021916908360ff1602179055506064600960016101000a81548160ff021916908360ff1602179055503480156200004957600080fd5b50604051620043663803806200436683398181016040528101906200006f9190620003d9565b6040518060400160405280600981526020017f446179647265616d7300000000000000000000000000000000000000000000008152506040518060400160405280600881526020017f444159445245414d0000000000000000000000000000000000000000000000008152508160009080519060200190620000f3929190620002fb565b5080600190805190602001906200010c929190620002fb565b50600260009080600181540180825580915050600190039060005260206000200160009091909190916101000a81548173ffffffffffffffffffffffffffffffffffffffff021916908373ffffffffffffffffffffffffffffffffffffffff160217905550505062000193620001876200022d60201b60201c565b6200023560201b60201c565b600160068190555082600960026101000a81548173ffffffffffffffffffffffffffffffffffffffff021916908373ffffffffffffffffffffffffffffffffffffffff16021790555081600760006101000a81548173ffffffffffffffffffffffffffffffffffffffff021916908373ffffffffffffffffffffffffffffffffffffffff1602179055508060088190555050505062000511565b600033905090565b6000600560009054906101000a900473ffffffffffffffffffffffffffffffffffffffff16905081600560006101000a81548173ffffffffffffffffffffffffffffffffffffffff021916908373ffffffffffffffffffffffffffffffffffffffff1602179055508173ffffffffffffffffffffffffffffffffffffffff168173ffffffffffffffffffffffffffffffffffffffff167f8be0079c531659141344cd1fd0a4f28419497f9722a3daafe3b4186f6b6457e060405160405180910390a35050565b828054620003099062000473565b90600052602060002090601f0160209004810192826200032d576000855562000379565b82601f106200034857805160ff191683800117855562000379565b8280016001018555821562000379579182015b82811115620003785782518255916020019190600101906200035b565b5b5090506200038891906200038c565b5090565b5b80821115620003a75760008160009055506001016200038d565b5090565b600081519050620003bc81620004dd565b92915050565b600081519050620003d381620004f7565b92915050565b600080600060608486031215620003f557620003f4620004d8565b5b60006200040586828701620003ab565b93505060206200041886828701620003ab565b92505060406200042b86828701620003c2565b9150509250925092565b6000620004428262000449565b9050919050565b600073ffffffffffffffffffffffffffffffffffffffff82169050919050565b6000819050919050565b600060028204905060018216806200048c57607f821691505b60208210811415620004a357620004a2620004a9565b5b50919050565b7f4e487b7100000000000000000000000000000000000000000000000000000000600052602260045260246000fd5b600080fd5b620004e88162000435565b8114620004f457600080fd5b50565b620005028162000469565b81146200050e57600080fd5b50565b613e4580620005216000396000f3fe6080604052600436106101c65760003560e01c80636352211e116100f7578063b1c9fe6e11610095578063d26ea6c011610064578063d26ea6c014610640578063d5b10e4b14610669578063e985e9c514610692578063f2fde38b146106cf576101cd565b8063b1c9fe6e14610584578063b88d4fde146105af578063c87b56dd146105d8578063cd7c032614610615576101cd565b80638da5cb5b116100d15780638da5cb5b146104e957806395d89b4114610514578063a0712d681461053f578063a22cb4651461055b576101cd565b80636352211e1461045857806370a0823114610495578063715018a6146104d2576101cd565b80632ddbd13a1161016457806342842e0e1161013e57806342842e0e1461039e57806344d19d2b146103c75780634f6ccce7146103f257806355f804b31461042f576101cd565b80632ddbd13a1461031f5780632f745c591461034a5780633ccfd60b14610387576101cd565b8063095ea7b3116101a0578063095ea7b31461027757806312065fe0146102a057806318160ddd146102cb57806323b872dd146102f6576101cd565b806301ffc9a7146101d257806306fdde031461020f578063081812fc1461023a576101cd565b366101cd57005b600080fd5b3480156101de57600080fd5b506101f960048036038101906101f49190612889565b6106f8565b6040516102069190612f3f565b60405180910390f35b34801561021b57600080fd5b50610224610772565b6040516102319190612f5a565b60405180910390f35b34801561024657600080fd5b50610261600480360381019061025c9190612959565b610804565b60405161026e9190612ed8565b60405180910390f35b34801561028357600080fd5b5061029e60048036038101906102999190612849565b610889565b005b3480156102ac57600080fd5b506102b56109a1565b6040516102c2919061329c565b60405180910390f35b3480156102d757600080fd5b506102e06109c0565b6040516102ed919061329c565b60405180910390f35b34801561030257600080fd5b5061031d60048036038101906103189190612733565b6109cf565b005b34801561032b57600080fd5b50610334610a2f565b604051610341919061329c565b60405180910390f35b34801561035657600080fd5b50610371600480360381019061036c9190612849565b610a35565b60405161037e919061329c565b60405180910390f35b34801561039357600080fd5b5061039c610b4f565b005b3480156103aa57600080fd5b506103c560048036038101906103c09190612733565b610cd7565b005b3480156103d357600080fd5b506103dc610cf7565b6040516103e991906132b7565b60405180910390f35b3480156103fe57600080fd5b5061041960048036038101906104149190612959565b610d0a565b604051610426919061329c565b60405180910390f35b34801561043b57600080fd5b5061045660048036038101906104519190612910565b610d5d565b005b34801561046457600080fd5b5061047f600480360381019061047a9190612959565b610df3565b60405161048c9190612ed8565b60405180910390f35b3480156104a157600080fd5b506104bc60048036038101906104b791906126c6565b610eb0565b6040516104c9919061329c565b60405180910390f35b3480156104de57600080fd5b506104e7610fd0565b005b3480156104f557600080fd5b506104fe611058565b60405161050b9190612ed8565b60405180910390f35b34801561052057600080fd5b50610529611082565b6040516105369190612f5a565b60405180910390f35b61055960048036038101906105549190612959565b611114565b005b34801561056757600080fd5b50610582600480360381019061057d9190612809565b61129f565b005b34801561059057600080fd5b50610599611420565b6040516105a691906132b7565b60405180910390f35b3480156105bb57600080fd5b506105d660048036038101906105d19190612786565b611433565b005b3480156105e457600080fd5b506105ff60048036038101906105fa9190612959565b611495565b60405161060c9190612f5a565b60405180910390f35b34801561062157600080fd5b5061062a611511565b6040516106379190612ed8565b60405180910390f35b34801561064c57600080fd5b50610667600480360381019061066291906126c6565b611537565b005b34801561067557600080fd5b50610690600480360381019061068b9190612986565b6115f7565b005b34801561069e57600080fd5b506106b960048036038101906106b491906126f3565b6116d8565b6040516106c69190612f3f565b60405180910390f35b3480156106db57600080fd5b506106f660048036038101906106f191906126c6565b6117da565b005b60007f780e9d63000000000000000000000000000000000000000000000000000000007bffffffffffffffffffffffffffffffffffffffffffffffffffffffff1916827bffffffffffffffffffffffffffffffffffffffffffffffffffffffff1916148061076b575061076a826118d2565b5b9050919050565b606060008054610781906135a6565b80601f01602080910402602001604051908101604052809291908181526020018280546107ad906135a6565b80156107fa5780601f106107cf576101008083540402835291602001916107fa565b820191906000526020600020905b8154815290600101906020018083116107dd57829003601f168201915b5050505050905090565b600061080f826119b4565b61084e576040517f08c379a00000000000000000000000000000000000000000000000000000000081526004016108459061317c565b60405180910390fd5b6003600083815260200190815260200160002060009054906101000a900473ffffffffffffffffffffffffffffffffffffffff169050919050565b600061089482610df3565b90508073ffffffffffffffffffffffffffffffffffffffff168373ffffffffffffffffffffffffffffffffffffffff161415610905576040517f08c379a00000000000000000000000000000000000000000000000000000000081526004016108fc906131fc565b60405180910390fd5b8073ffffffffffffffffffffffffffffffffffffffff16610924611a3f565b73ffffffffffffffffffffffffffffffffffffffff16148061095357506109528161094d611a3f565b6116d8565b5b610992576040517f08c379a0000000000000000000000000000000000000000000000000000000008152600401610989906130dc565b60405180910390fd5b61099c8383611a47565b505050565b60003073ffffffffffffffffffffffffffffffffffffffff1631905090565b60006109ca611b00565b905090565b6109e06109da611a3f565b82611b19565b610a1f576040517f08c379a0000000000000000000000000000000000000000000000000000000008152600401610a169061321c565b60405180910390fd5b610a2a838383611bf7565b505050565b60085481565b6000610a4083610eb0565b8210610a81576040517f08c379a0000000000000000000000000000000000000000000000000000000008152600401610a7890612f9c565b60405180910390fd5b600080610a8c611b00565b90506000600190505b818111610b0d57610aa581611db0565b73ffffffffffffffffffffffffffffffffffffffff168673ffffffffffffffffffffffffffffffffffffffff161415610afa5784831415610aeb57809350505050610b49565b8280610af690613609565b9350505b8080610b0590613609565b915050610a95565b506040517f08c379a0000000000000000000000000000000000000000000000000000000008152600401610b4090612f9c565b60405180910390fd5b92915050565b60026006541415610b95576040517f08c379a0000000000000000000000000000000000000000000000000000000008152600401610b8c9061325c565b60405180910390fd5b6002600681905550610ba5611a3f565b73ffffffffffffffffffffffffffffffffffffffff16610bc3611058565b73ffffffffffffffffffffffffffffffffffffffff1614610c19576040517f08c379a0000000000000000000000000000000000000000000000000000000008152600401610c10906131bc565b60405180910390fd5b6000610c23611a3f565b73ffffffffffffffffffffffffffffffffffffffff1647604051610c4690612ec3565b60006040518083038185875af1925050503d8060008114610c83576040519150601f19603f3d011682016040523d82523d6000602084013e610c88565b606091505b5050905080610ccc576040517f08c379a0000000000000000000000000000000000000000000000000000000008152600401610cc39061327c565b60405180910390fd5b506001600681905550565b610cf283838360405180602001604052806000815250611433565b505050565b600960019054906101000a900460ff1681565b6000610d14611b00565b8210610d55576040517f08c379a0000000000000000000000000000000000000000000000000000000008152600401610d4c9061323c565b60405180910390fd5b819050919050565b610d65611a3f565b73ffffffffffffffffffffffffffffffffffffffff16610d83611058565b73ffffffffffffffffffffffffffffffffffffffff1614610dd9576040517f08c379a0000000000000000000000000000000000000000000000000000000008152600401610dd0906131bc565b60405180910390fd5b80600a9080519060200190610def9291906124b0565b5050565b60008060028381548110610e0a57610e09613710565b5b9060005260206000200160009054906101000a900473ffffffffffffffffffffffffffffffffffffffff169050600073ffffffffffffffffffffffffffffffffffffffff168173ffffffffffffffffffffffffffffffffffffffff161415610ea7576040517f08c379a0000000000000000000000000000000000000000000000000000000008152600401610e9e9061311c565b60405180910390fd5b80915050919050565b60008073ffffffffffffffffffffffffffffffffffffffff168273ffffffffffffffffffffffffffffffffffffffff161415610f21576040517f08c379a0000000000000000000000000000000000000000000000000000000008152600401610f18906130fc565b60405180910390fd5b600080600190505b600280549050811015610fc65760028181548110610f4a57610f49613710565b5b9060005260206000200160009054906101000a900473ffffffffffffffffffffffffffffffffffffffff1673ffffffffffffffffffffffffffffffffffffffff168473ffffffffffffffffffffffffffffffffffffffff161415610fb55781610fb290613609565b91505b80610fbf90613609565b9050610f29565b5080915050919050565b610fd8611a3f565b73ffffffffffffffffffffffffffffffffffffffff16610ff6611058565b73ffffffffffffffffffffffffffffffffffffffff161461104c576040517f08c379a0000000000000000000000000000000000000000000000000000000008152600401611043906131bc565b60405180910390fd5b6110566000611df8565b565b6000600560009054906101000a900473ffffffffffffffffffffffffffffffffffffffff16905090565b606060018054611091906135a6565b80601f01602080910402602001604051908101604052809291908181526020018280546110bd906135a6565b801561110a5780601f106110df5761010080835404028352916020019161110a565b820191906000526020600020905b8154815290600101906020018083116110ed57829003601f168201915b5050505050905090565b600061111e6109c0565b90506008821115611164576040517f08c379a000000000000000000000000000000000000000000000000000000000815260040161115b90612ffc565b60405180910390fd5b6002600960009054906101000a900460ff1660ff16146111b9576040517f08c379a00000000000000000000000000000000000000000000000000000000081526004016111b09061303c565b60405180910390fd5b60085482826111c891906133bc565b1115611209576040517f08c379a000000000000000000000000000000000000000000000000000000000815260040161120090612f7c565b60405180910390fd5b348266354a6ba7a1800061121d9190613443565b1461125d576040517f08c379a00000000000000000000000000000000000000000000000000000000081526004016112549061319c565b60405180910390fd5b6000600190505b82811161129a57611287611276611a3f565b828461128291906133bc565b611ebe565b808061129290613609565b915050611264565b505050565b6112a7611a3f565b73ffffffffffffffffffffffffffffffffffffffff168273ffffffffffffffffffffffffffffffffffffffff161415611315576040517f08c379a000000000000000000000000000000000000000000000000000000000815260040161130c9061309c565b60405180910390fd5b8060046000611322611a3f565b73ffffffffffffffffffffffffffffffffffffffff1673ffffffffffffffffffffffffffffffffffffffff16815260200190815260200160002060008473ffffffffffffffffffffffffffffffffffffffff1673ffffffffffffffffffffffffffffffffffffffff16815260200190815260200160002060006101000a81548160ff0219169083151502179055508173ffffffffffffffffffffffffffffffffffffffff166113cf611a3f565b73ffffffffffffffffffffffffffffffffffffffff167f17307eab39ab6107e8899845ad3d59bd9653f200f220920489ca2b5937696c31836040516114149190612f3f565b60405180910390a35050565b600960009054906101000a900460ff1681565b61144461143e611a3f565b83611b19565b611483576040517f08c379a000000000000000000000000000000000000000000000000000000000815260040161147a9061321c565b60405180910390fd5b61148f84848484612046565b50505050565b60606114a0826119b4565b6114df576040517f08c379a00000000000000000000000000000000000000000000000000000000081526004016114d69061315c565b60405180910390fd5b600a6114ea836120a2565b6040516020016114fb929190612e9f565b6040516020818303038152906040529050919050565b600760009054906101000a900473ffffffffffffffffffffffffffffffffffffffff1681565b61153f611a3f565b73ffffffffffffffffffffffffffffffffffffffff1661155d611058565b73ffffffffffffffffffffffffffffffffffffffff16146115b3576040517f08c379a00000000000000000000000000000000000000000000000000000000081526004016115aa906131bc565b60405180910390fd5b80600760006101000a81548173ffffffffffffffffffffffffffffffffffffffff021916908373ffffffffffffffffffffffffffffffffffffffff16021790555050565b6115ff611a3f565b73ffffffffffffffffffffffffffffffffffffffff1661161d611058565b73ffffffffffffffffffffffffffffffffffffffff1614611673576040517f08c379a000000000000000000000000000000000000000000000000000000000815260040161166a906131bc565b60405180910390fd5b60028160ff1611156116ba576040517f08c379a00000000000000000000000000000000000000000000000000000000081526004016116b19061305c565b60405180910390fd5b80600960006101000a81548160ff021916908360ff16021790555050565b600080600760009054906101000a900473ffffffffffffffffffffffffffffffffffffffff1690508273ffffffffffffffffffffffffffffffffffffffff168173ffffffffffffffffffffffffffffffffffffffff1663c4552791866040518263ffffffff1660e01b81526004016117509190612ed8565b60206040518083038186803b15801561176857600080fd5b505afa15801561177c573d6000803e3d6000fd5b505050506040513d601f19601f820116820180604052508101906117a091906128e3565b73ffffffffffffffffffffffffffffffffffffffff1614156117c65760019150506117d4565b6117d08484612203565b9150505b92915050565b6117e2611a3f565b73ffffffffffffffffffffffffffffffffffffffff16611800611058565b73ffffffffffffffffffffffffffffffffffffffff1614611856576040517f08c379a000000000000000000000000000000000000000000000000000000000815260040161184d906131bc565b60405180910390fd5b600073ffffffffffffffffffffffffffffffffffffffff168173ffffffffffffffffffffffffffffffffffffffff1614156118c6576040517f08c379a00000000000000000000000000000000000000000000000000000000081526004016118bd90612fdc565b60405180910390fd5b6118cf81611df8565b50565b60007f80ac58cd000000000000000000000000000000000000000000000000000000007bffffffffffffffffffffffffffffffffffffffffffffffffffffffff1916827bffffffffffffffffffffffffffffffffffffffffffffffffffffffff1916148061199d57507f5b5e139f000000000000000000000000000000000000000000000000000000007bffffffffffffffffffffffffffffffffffffffffffffffffffffffff1916827bffffffffffffffffffffffffffffffffffffffffffffffffffffffff1916145b806119ad57506119ac82612297565b5b9050919050565b60006119be611b00565b8211158015611a385750600073ffffffffffffffffffffffffffffffffffffffff16600283815481106119f4576119f3613710565b5b9060005260206000200160009054906101000a900473ffffffffffffffffffffffffffffffffffffffff1673ffffffffffffffffffffffffffffffffffffffff1614155b9050919050565b600033905090565b816003600083815260200190815260200160002060006101000a81548173ffffffffffffffffffffffffffffffffffffffff021916908373ffffffffffffffffffffffffffffffffffffffff160217905550808273ffffffffffffffffffffffffffffffffffffffff16611aba83610df3565b73ffffffffffffffffffffffffffffffffffffffff167f8c5be1e5ebec7d5bd14f71427d1e84f3dd0314c0f7b2291e5b200ac8c7c3b92560405160405180910390a45050565b60006001600280549050611b14919061349d565b905090565b6000611b24826119b4565b611b63576040517f08c379a0000000000000000000000000000000000000000000000000000000008152600401611b5a906130bc565b60405180910390fd5b6000611b6e83610df3565b90508073ffffffffffffffffffffffffffffffffffffffff168473ffffffffffffffffffffffffffffffffffffffff161480611bdd57508373ffffffffffffffffffffffffffffffffffffffff16611bc584610804565b73ffffffffffffffffffffffffffffffffffffffff16145b80611bee5750611bed81856116d8565b5b91505092915050565b8273ffffffffffffffffffffffffffffffffffffffff16611c1782610df3565b73ffffffffffffffffffffffffffffffffffffffff1614611c6d576040517f08c379a0000000000000000000000000000000000000000000000000000000008152600401611c64906131dc565b60405180910390fd5b600073ffffffffffffffffffffffffffffffffffffffff168273ffffffffffffffffffffffffffffffffffffffff161415611cdd576040517f08c379a0000000000000000000000000000000000000000000000000000000008152600401611cd49061307c565b60405180910390fd5b611ce8838383612301565b611cf3600082611a47565b8160028281548110611d0857611d07613710565b5b9060005260206000200160006101000a81548173ffffffffffffffffffffffffffffffffffffffff021916908373ffffffffffffffffffffffffffffffffffffffff160217905550808273ffffffffffffffffffffffffffffffffffffffff168473ffffffffffffffffffffffffffffffffffffffff167fddf252ad1be2c89b69c2b068fc378daa952ba7f163c4a11628f55a4df523b3ef60405160405180910390a4505050565b600060028281548110611dc657611dc5613710565b5b9060005260206000200160009054906101000a900473ffffffffffffffffffffffffffffffffffffffff169050919050565b6000600560009054906101000a900473ffffffffffffffffffffffffffffffffffffffff16905081600560006101000a81548173ffffffffffffffffffffffffffffffffffffffff021916908373ffffffffffffffffffffffffffffffffffffffff1602179055508173ffffffffffffffffffffffffffffffffffffffff168173ffffffffffffffffffffffffffffffffffffffff167f8be0079c531659141344cd1fd0a4f28419497f9722a3daafe3b4186f6b6457e060405160405180910390a35050565b600073ffffffffffffffffffffffffffffffffffffffff168273ffffffffffffffffffffffffffffffffffffffff161415611f2e576040517f08c379a0000000000000000000000000000000000000000000000000000000008152600401611f259061313c565b60405180910390fd5b611f37816119b4565b15611f77576040517f08c379a0000000000000000000000000000000000000000000000000000000008152600401611f6e9061301c565b60405180910390fd5b611f8360008383612301565b6002829080600181540180825580915050600190039060005260206000200160009091909190916101000a81548173ffffffffffffffffffffffffffffffffffffffff021916908373ffffffffffffffffffffffffffffffffffffffff160217905550808273ffffffffffffffffffffffffffffffffffffffff16600073ffffffffffffffffffffffffffffffffffffffff167fddf252ad1be2c89b69c2b068fc378daa952ba7f163c4a11628f55a4df523b3ef60405160405180910390a45050565b612051848484611bf7565b61205d84848484612306565b61209c576040517f08c379a000000000000000000000000000000000000000000000000000000000815260040161209390612fbc565b60405180910390fd5b50505050565b606060008214156120ea576040518060400160405280600181526020017f300000000000000000000000000000000000000000000000000000000000000081525090506121fe565b600082905060005b6000821461211c57808061210590613609565b915050600a826121159190613412565b91506120f2565b60008167ffffffffffffffff8111156121385761213761373f565b5b6040519080825280601f01601f19166020018201604052801561216a5781602001600182028036833780820191505090505b5090505b600085146121f757600182612183919061349d565b9150600a856121929190613652565b603061219e91906133bc565b60f81b8183815181106121b4576121b3613710565b5b60200101907effffffffffffffffffffffffffffffffffffffffffffffffffffffffffffff1916908160001a905350600a856121f09190613412565b945061216e565b8093505050505b919050565b6000600460008473ffffffffffffffffffffffffffffffffffffffff1673ffffffffffffffffffffffffffffffffffffffff16815260200190815260200160002060008373ffffffffffffffffffffffffffffffffffffffff1673ffffffffffffffffffffffffffffffffffffffff16815260200190815260200160002060009054906101000a900460ff16905092915050565b60007f01ffc9a7000000000000000000000000000000000000000000000000000000007bffffffffffffffffffffffffffffffffffffffffffffffffffffffff1916827bffffffffffffffffffffffffffffffffffffffffffffffffffffffff1916149050919050565b505050565b60006123278473ffffffffffffffffffffffffffffffffffffffff1661249d565b15612490578373ffffffffffffffffffffffffffffffffffffffff1663150b7a02612350611a3f565b8786866040518563ffffffff1660e01b81526004016123729493929190612ef3565b602060405180830381600087803b15801561238c57600080fd5b505af19250505080156123bd57506040513d601f19601f820116820180604052508101906123ba91906128b6565b60015b612440573d80600081146123ed576040519150601f19603f3d011682016040523d82523d6000602084013e6123f2565b606091505b50600081511415612438576040517f08c379a000000000000000000000000000000000000000000000000000000000815260040161242f90612fbc565b60405180910390fd5b805181602001fd5b63150b7a0260e01b7bffffffffffffffffffffffffffffffffffffffffffffffffffffffff1916817bffffffffffffffffffffffffffffffffffffffffffffffffffffffff191614915050612495565b600190505b949350505050565b600080823b905060008111915050919050565b8280546124bc906135a6565b90600052602060002090601f0160209004810192826124de5760008555612525565b82601f106124f757805160ff1916838001178555612525565b82800160010185558215612525579182015b82811115612524578251825591602001919060010190612509565b5b5090506125329190612536565b5090565b5b8082111561254f576000816000905550600101612537565b5090565b6000612566612561846132f7565b6132d2565b90508281526020810184848401111561258257612581613773565b5b61258d848285613564565b509392505050565b60006125a86125a384613328565b6132d2565b9050828152602081018484840111156125c4576125c3613773565b5b6125cf848285613564565b509392505050565b6000813590506125e681613d85565b92915050565b6000813590506125fb81613d9c565b92915050565b60008135905061261081613db3565b92915050565b60008151905061262581613db3565b92915050565b600082601f8301126126405761263f61376e565b5b8135612650848260208601612553565b91505092915050565b60008151905061266881613dca565b92915050565b600082601f8301126126835761268261376e565b5b8135612693848260208601612595565b91505092915050565b6000813590506126ab81613de1565b92915050565b6000813590506126c081613df8565b92915050565b6000602082840312156126dc576126db61377d565b5b60006126ea848285016125d7565b91505092915050565b6000806040838503121561270a5761270961377d565b5b6000612718858286016125d7565b9250506020612729858286016125d7565b9150509250929050565b60008060006060848603121561274c5761274b61377d565b5b600061275a868287016125d7565b935050602061276b868287016125d7565b925050604061277c8682870161269c565b9150509250925092565b600080600080608085870312156127a05761279f61377d565b5b60006127ae878288016125d7565b94505060206127bf878288016125d7565b93505060406127d08782880161269c565b925050606085013567ffffffffffffffff8111156127f1576127f0613778565b5b6127fd8782880161262b565b91505092959194509250565b600080604083850312156128205761281f61377d565b5b600061282e858286016125d7565b925050602061283f858286016125ec565b9150509250929050565b600080604083850312156128605761285f61377d565b5b600061286e858286016125d7565b925050602061287f8582860161269c565b9150509250929050565b60006020828403121561289f5761289e61377d565b5b60006128ad84828501612601565b91505092915050565b6000602082840312156128cc576128cb61377d565b5b60006128da84828501612616565b91505092915050565b6000602082840312156128f9576128f861377d565b5b600061290784828501612659565b91505092915050565b6000602082840312156129265761292561377d565b5b600082013567ffffffffffffffff81111561294457612943613778565b5b6129508482850161266e565b91505092915050565b60006020828403121561296f5761296e61377d565b5b600061297d8482850161269c565b91505092915050565b60006020828403121561299c5761299b61377d565b5b60006129aa848285016126b1565b91505092915050565b6129bc816134d1565b82525050565b6129cb816134e3565b82525050565b60006129dc8261336e565b6129e68185613384565b93506129f6818560208601613573565b6129ff81613782565b840191505092915050565b6000612a1582613379565b612a1f81856133a0565b9350612a2f818560208601613573565b612a3881613782565b840191505092915050565b6000612a4e82613379565b612a5881856133b1565b9350612a68818560208601613573565b80840191505092915050565b60008154612a81816135a6565b612a8b81866133b1565b94506001821660008114612aa65760018114612ab757612aea565b60ff19831686528186019350612aea565b612ac085613359565b60005b83811015612ae257815481890152600182019150602081019050612ac3565b838801955050505b50505092915050565b6000612b006015836133a0565b9150612b0b82613793565b602082019050919050565b6000612b23602b836133a0565b9150612b2e826137bc565b604082019050919050565b6000612b466032836133a0565b9150612b518261380b565b604082019050919050565b6000612b696026836133a0565b9150612b748261385a565b604082019050919050565b6000612b8c6010836133a0565b9150612b97826138a9565b602082019050919050565b6000612baf601c836133a0565b9150612bba826138d2565b602082019050919050565b6000612bd2600f836133a0565b9150612bdd826138fb565b602082019050919050565b6000612bf5600d836133a0565b9150612c0082613924565b602082019050919050565b6000612c186024836133a0565b9150612c238261394d565b604082019050919050565b6000612c3b6019836133a0565b9150612c468261399c565b602082019050919050565b6000612c5e602c836133a0565b9150612c69826139c5565b604082019050919050565b6000612c816038836133a0565b9150612c8c82613a14565b604082019050919050565b6000612ca4602a836133a0565b9150612caf82613a63565b604082019050919050565b6000612cc76029836133a0565b9150612cd282613ab2565b604082019050919050565b6000612cea6020836133a0565b9150612cf582613b01565b602082019050919050565b6000612d0d6015836133a0565b9150612d1882613b2a565b602082019050919050565b6000612d30602c836133a0565b9150612d3b82613b53565b604082019050919050565b6000612d53600d836133a0565b9150612d5e82613ba2565b602082019050919050565b6000612d766020836133a0565b9150612d8182613bcb565b602082019050919050565b6000612d996029836133a0565b9150612da482613bf4565b604082019050919050565b6000612dbc6021836133a0565b9150612dc782613c43565b604082019050919050565b6000612ddf600083613395565b9150612dea82613c92565b600082019050919050565b6000612e026031836133a0565b9150612e0d82613c95565b604082019050919050565b6000612e25602c836133a0565b9150612e3082613ce4565b604082019050919050565b6000612e48601f836133a0565b9150612e5382613d33565b602082019050919050565b6000612e6b6011836133a0565b9150612e7682613d5c565b602082019050919050565b612e8a8161354d565b82525050565b612e9981613557565b82525050565b6000612eab8285612a74565b9150612eb78284612a43565b91508190509392505050565b6000612ece82612dd2565b9150819050919050565b6000602082019050612eed60008301846129b3565b92915050565b6000608082019050612f0860008301876129b3565b612f1560208301866129b3565b612f226040830185612e81565b8181036060830152612f3481846129d1565b905095945050505050565b6000602082019050612f5460008301846129c2565b92915050565b60006020820190508181036000830152612f748184612a0a565b905092915050565b60006020820190508181036000830152612f9581612af3565b9050919050565b60006020820190508181036000830152612fb581612b16565b9050919050565b60006020820190508181036000830152612fd581612b39565b9050919050565b60006020820190508181036000830152612ff581612b5c565b9050919050565b6000602082019050818103600083015261301581612b7f565b9050919050565b6000602082019050818103600083015261303581612ba2565b9050919050565b6000602082019050818103600083015261305581612bc5565b9050919050565b6000602082019050818103600083015261307581612be8565b9050919050565b6000602082019050818103600083015261309581612c0b565b9050919050565b600060208201905081810360008301526130b581612c2e565b9050919050565b600060208201905081810360008301526130d581612c51565b9050919050565b600060208201905081810360008301526130f581612c74565b9050919050565b6000602082019050818103600083015261311581612c97565b9050919050565b6000602082019050818103600083015261313581612cba565b9050919050565b6000602082019050818103600083015261315581612cdd565b9050919050565b6000602082019050818103600083015261317581612d00565b9050919050565b6000602082019050818103600083015261319581612d23565b9050919050565b600060208201905081810360008301526131b581612d46565b9050919050565b600060208201905081810360008301526131d581612d69565b9050919050565b600060208201905081810360008301526131f581612d8c565b9050919050565b6000602082019050818103600083015261321581612daf565b9050919050565b6000602082019050818103600083015261323581612df5565b9050919050565b6000602082019050818103600083015261325581612e18565b9050919050565b6000602082019050818103600083015261327581612e3b565b9050919050565b6000602082019050818103600083015261329581612e5e565b9050919050565b60006020820190506132b16000830184612e81565b92915050565b60006020820190506132cc6000830184612e90565b92915050565b60006132dc6132ed565b90506132e882826135d8565b919050565b6000604051905090565b600067ffffffffffffffff8211156133125761331161373f565b5b61331b82613782565b9050602081019050919050565b600067ffffffffffffffff8211156133435761334261373f565b5b61334c82613782565b9050602081019050919050565b60008190508160005260206000209050919050565b600081519050919050565b600081519050919050565b600082825260208201905092915050565b600081905092915050565b600082825260208201905092915050565b600081905092915050565b60006133c78261354d565b91506133d28361354d565b9250827fffffffffffffffffffffffffffffffffffffffffffffffffffffffffffffffff0382111561340757613406613683565b5b828201905092915050565b600061341d8261354d565b91506134288361354d565b925082613438576134376136b2565b5b828204905092915050565b600061344e8261354d565b91506134598361354d565b9250817fffffffffffffffffffffffffffffffffffffffffffffffffffffffffffffffff048311821515161561349257613491613683565b5b828202905092915050565b60006134a88261354d565b91506134b38361354d565b9250828210156134c6576134c5613683565b5b828203905092915050565b60006134dc8261352d565b9050919050565b60008115159050919050565b60007fffffffff0000000000000000000000000000000000000000000000000000000082169050919050565b6000613526826134d1565b9050919050565b600073ffffffffffffffffffffffffffffffffffffffff82169050919050565b6000819050919050565b600060ff82169050919050565b82818337600083830152505050565b60005b83811015613591578082015181840152602081019050613576565b838111156135a0576000848401525b50505050565b600060028204905060018216806135be57607f821691505b602082108114156135d2576135d16136e1565b5b50919050565b6135e182613782565b810181811067ffffffffffffffff82111715613600576135ff61373f565b5b80604052505050565b60006136148261354d565b91507fffffffffffffffffffffffffffffffffffffffffffffffffffffffffffffffff82141561364757613646613683565b5b600182019050919050565b600061365d8261354d565b91506136688361354d565b925082613678576136776136b2565b5b828206905092915050565b7f4e487b7100000000000000000000000000000000000000000000000000000000600052601160045260246000fd5b7f4e487b7100000000000000000000000000000000000000000000000000000000600052601260045260246000fd5b7f4e487b7100000000000000000000000000000000000000000000000000000000600052602260045260246000fd5b7f4e487b7100000000000000000000000000000000000000000000000000000000600052603260045260246000fd5b7f4e487b7100000000000000000000000000000000000000000000000000000000600052604160045260246000fd5b600080fd5b600080fd5b600080fd5b600080fd5b6000601f19601f8301169050919050565b7f4d696e74696e67206578636565647320746f74616c0000000000000000000000600082015250565b7f455243373231456e756d657261626c653a206f776e657220696e646578206f7560008201527f74206f6620626f756e6473000000000000000000000000000000000000000000602082015250565b7f4552433732313a207472616e7366657220746f206e6f6e20455243373231526560008201527f63656976657220696d706c656d656e7465720000000000000000000000000000602082015250565b7f4f776e61626c653a206e6577206f776e657220697320746865207a65726f206160008201527f6464726573730000000000000000000000000000000000000000000000000000602082015250565b7f4d696e74696e6720746f6f206d616e7900000000000000000000000000000000600082015250565b7f4552433732313a20746f6b656e20616c7265616479206d696e74656400000000600082015250565b7f4d696e74206e6f74206163746976650000000000000000000000000000000000600082015250565b7f496e76616c696420706861736500000000000000000000000000000000000000600082015250565b7f4552433732313a207472616e7366657220746f20746865207a65726f2061646460008201527f7265737300000000000000000000000000000000000000000000000000000000602082015250565b7f4552433732313a20617070726f766520746f2063616c6c657200000000000000600082015250565b7f4552433732313a206f70657261746f7220717565727920666f72206e6f6e657860008201527f697374656e7420746f6b656e0000000000000000000000000000000000000000602082015250565b7f4552433732313a20617070726f76652063616c6c6572206973206e6f74206f7760008201527f6e6572206e6f7220617070726f76656420666f7220616c6c0000000000000000602082015250565b7f4552433732313a2062616c616e636520717565727920666f7220746865207a6560008201527f726f206164647265737300000000000000000000000000000000000000000000602082015250565b7f4552433732313a206f776e657220717565727920666f72206e6f6e657869737460008201527f656e7420746f6b656e0000000000000000000000000000000000000000000000602082015250565b7f4552433732313a206d696e7420746f20746865207a65726f2061646472657373600082015250565b7f546f6b656e20646f6573206e6f742065786973742e0000000000000000000000600082015250565b7f4552433732313a20617070726f76656420717565727920666f72206e6f6e657860008201527f697374656e7420746f6b656e0000000000000000000000000000000000000000602082015250565b7f496e76616c69642066756e647300000000000000000000000000000000000000600082015250565b7f4f776e61626c653a2063616c6c6572206973206e6f7420746865206f776e6572600082015250565b7f4552433732313a207472616e73666572206f6620746f6b656e2074686174206960008201527f73206e6f74206f776e0000000000000000000000000000000000000000000000602082015250565b7f4552433732313a20617070726f76616c20746f2063757272656e74206f776e6560008201527f7200000000000000000000000000000000000000000000000000000000000000602082015250565b50565b7f4552433732313a207472616e736665722063616c6c6572206973206e6f74206f60008201527f776e6572206e6f7220617070726f766564000000000000000000000000000000602082015250565b7f455243373231456e756d657261626c653a20676c6f62616c20696e646578206f60008201527f7574206f6620626f756e64730000000000000000000000000000000000000000602082015250565b7f5265656e7472616e637947756172643a207265656e7472616e742063616c6c00600082015250565b7f5769746864726177616c206661696c6564000000000000000000000000000000600082015250565b613d8e816134d1565b8114613d9957600080fd5b50565b613da5816134e3565b8114613db057600080fd5b50565b613dbc816134ef565b8114613dc757600080fd5b50565b613dd38161351b565b8114613dde57600080fd5b50565b613dea8161354d565b8114613df557600080fd5b50565b613e0181613557565b8114613e0c57600080fd5b5056fea2646970667358221220530e5db0ca99b82f7cfdf9f026d5db6d7fc53629644d10392023ede02129812464736f6c63430008070033",
  "linkReferences": {},
  "deployedLinkReferences": {}
}