{
  "_format": "hh-sol-artifact-1",
  "contractName": "Daydreams",
  "sourceName": "contracts/Daydreams.sol",
  "abi": [
    {
      "inputs": [
        {
          "internalType": "address",
          "name": "treasuryAddress",
          "type": "address"
        },
        {
          "internalType": "address",
          "name": "_proxyRegistryAddress",
          "type": "address"
        },
        {
          "internalType": "uint256",
          "name": "_total",
          "type": "uint256"
        }
      ],
      "stateMutability": "nonpayable",
      "type": "constructor"
    },
    {
      "anonymous": false,
      "inputs": [
        {
          "indexed": true,
          "internalType": "address",
          "name": "owner",
          "type": "address"
        },
        {
          "indexed": true,
          "internalType": "address",
          "name": "approved",
          "type": "address"
        },
        {
          "indexed": true,
          "internalType": "uint256",
          "name": "tokenId",
          "type": "uint256"
        }
      ],
      "name": "Approval",
      "type": "event"
    },
    {
      "anonymous": false,
      "inputs": [
        {
          "indexed": true,
          "internalType": "address",
          "name": "owner",
          "type": "address"
        },
        {
          "indexed": true,
          "internalType": "address",
          "name": "operator",
          "type": "address"
        },
        {
          "indexed": false,
          "internalType": "bool",
          "name": "approved",
          "type": "bool"
        }
      ],
      "name": "ApprovalForAll",
      "type": "event"
    },
    {
      "anonymous": false,
      "inputs": [
        {
          "indexed": true,
          "internalType": "address",
          "name": "previousOwner",
          "type": "address"
        },
        {
          "indexed": true,
          "internalType": "address",
          "name": "newOwner",
          "type": "address"
        }
      ],
      "name": "OwnershipTransferred",
      "type": "event"
    },
    {
      "anonymous": false,
      "inputs": [
        {
          "indexed": true,
          "internalType": "address",
          "name": "from",
          "type": "address"
        },
        {
          "indexed": true,
          "internalType": "address",
          "name": "to",
          "type": "address"
        },
        {
          "indexed": true,
          "internalType": "uint256",
          "name": "tokenId",
          "type": "uint256"
        }
      ],
      "name": "Transfer",
      "type": "event"
    },
    {
      "inputs": [
        {
          "internalType": "address",
          "name": "to",
          "type": "address"
        },
        {
          "internalType": "uint256",
          "name": "tokenId",
          "type": "uint256"
        }
      ],
      "name": "approve",
      "outputs": [],
      "stateMutability": "nonpayable",
      "type": "function"
    },
    {
      "inputs": [
        {
          "internalType": "address",
          "name": "owner",
          "type": "address"
        }
      ],
      "name": "balanceOf",
      "outputs": [
        {
          "internalType": "uint256",
          "name": "",
          "type": "uint256"
        }
      ],
      "stateMutability": "view",
      "type": "function"
    },
    {
      "inputs": [
        {
          "internalType": "uint256",
          "name": "tokenId",
          "type": "uint256"
        }
      ],
      "name": "getApproved",
      "outputs": [
        {
          "internalType": "address",
          "name": "",
          "type": "address"
        }
      ],
      "stateMutability": "view",
      "type": "function"
    },
    {
      "inputs": [],
      "name": "getBalance",
      "outputs": [
        {
          "internalType": "uint256",
          "name": "",
          "type": "uint256"
        }
      ],
      "stateMutability": "view",
      "type": "function"
    },
    {
      "inputs": [
        {
          "internalType": "address",
          "name": "owner",
          "type": "address"
        },
        {
          "internalType": "address",
          "name": "operator",
          "type": "address"
        }
      ],
      "name": "isApprovedForAll",
      "outputs": [
        {
          "internalType": "bool",
          "name": "",
          "type": "bool"
        }
      ],
      "stateMutability": "view",
      "type": "function"
    },
    {
      "inputs": [],
      "name": "merkleRoot",
      "outputs": [
        {
          "internalType": "bytes32",
          "name": "",
          "type": "bytes32"
        }
      ],
      "stateMutability": "view",
      "type": "function"
    },
    {
      "inputs": [
        {
          "internalType": "uint256",
          "name": "_qty",
          "type": "uint256"
        }
      ],
      "name": "mint",
      "outputs": [],
      "stateMutability": "payable",
      "type": "function"
    },
    {
      "inputs": [],
      "name": "name",
      "outputs": [
        {
          "internalType": "string",
          "name": "",
          "type": "string"
        }
      ],
      "stateMutability": "view",
      "type": "function"
    },
    {
      "inputs": [],
      "name": "owner",
      "outputs": [
        {
          "internalType": "address",
          "name": "",
          "type": "address"
        }
      ],
      "stateMutability": "view",
      "type": "function"
    },
    {
      "inputs": [
        {
          "internalType": "uint256",
          "name": "tokenId",
          "type": "uint256"
        }
      ],
      "name": "ownerOf",
      "outputs": [
        {
          "internalType": "address",
          "name": "",
          "type": "address"
        }
      ],
      "stateMutability": "view",
      "type": "function"
    },
    {
      "inputs": [],
      "name": "phase",
      "outputs": [
        {
          "internalType": "uint8",
          "name": "",
          "type": "uint8"
        }
      ],
      "stateMutability": "view",
      "type": "function"
    },
    {
      "inputs": [],
      "name": "proxyRegistryAddress",
      "outputs": [
        {
          "internalType": "address",
          "name": "",
          "type": "address"
        }
      ],
      "stateMutability": "view",
      "type": "function"
    },
    {
      "inputs": [],
      "name": "renounceOwnership",
      "outputs": [],
      "stateMutability": "nonpayable",
      "type": "function"
    },
    {
      "inputs": [],
      "name": "reservedSupply",
      "outputs": [
        {
          "internalType": "uint8",
          "name": "",
          "type": "uint8"
        }
      ],
      "stateMutability": "view",
      "type": "function"
    },
    {
      "inputs": [
        {
          "internalType": "address",
          "name": "from",
          "type": "address"
        },
        {
          "internalType": "address",
          "name": "to",
          "type": "address"
        },
        {
          "internalType": "uint256",
          "name": "tokenId",
          "type": "uint256"
        }
      ],
      "name": "safeTransferFrom",
      "outputs": [],
      "stateMutability": "nonpayable",
      "type": "function"
    },
    {
      "inputs": [
        {
          "internalType": "address",
          "name": "from",
          "type": "address"
        },
        {
          "internalType": "address",
          "name": "to",
          "type": "address"
        },
        {
          "internalType": "uint256",
          "name": "tokenId",
          "type": "uint256"
        },
        {
          "internalType": "bytes",
          "name": "_data",
          "type": "bytes"
        }
      ],
      "name": "safeTransferFrom",
      "outputs": [],
      "stateMutability": "nonpayable",
      "type": "function"
    },
    {
      "inputs": [
        {
          "internalType": "address",
          "name": "operator",
          "type": "address"
        },
        {
          "internalType": "bool",
          "name": "approved",
          "type": "bool"
        }
      ],
      "name": "setApprovalForAll",
      "outputs": [],
      "stateMutability": "nonpayable",
      "type": "function"
    },
    {
      "inputs": [
        {
          "internalType": "string",
          "name": "_baseURI",
          "type": "string"
        }
      ],
      "name": "setBaseURI",
      "outputs": [],
      "stateMutability": "nonpayable",
      "type": "function"
    },
    {
      "inputs": [
        {
          "internalType": "bytes32",
          "name": "_merkleRoot",
          "type": "bytes32"
        }
      ],
      "name": "setMerkleRoot",
      "outputs": [],
      "stateMutability": "nonpayable",
      "type": "function"
    },
    {
      "inputs": [
        {
          "internalType": "uint8",
          "name": "value",
          "type": "uint8"
        }
      ],
      "name": "setPhase",
      "outputs": [],
      "stateMutability": "nonpayable",
      "type": "function"
    },
    {
      "inputs": [
        {
          "internalType": "address",
          "name": "_proxyRegistryAddress",
          "type": "address"
        }
      ],
      "name": "setProxyRegistryAddress",
      "outputs": [],
      "stateMutability": "nonpayable",
      "type": "function"
    },
    {
      "inputs": [
        {
          "internalType": "bytes4",
          "name": "interfaceId",
          "type": "bytes4"
        }
      ],
      "name": "supportsInterface",
      "outputs": [
        {
          "internalType": "bool",
          "name": "",
          "type": "bool"
        }
      ],
      "stateMutability": "view",
      "type": "function"
    },
    {
      "inputs": [],
      "name": "symbol",
      "outputs": [
        {
          "internalType": "string",
          "name": "",
          "type": "string"
        }
      ],
      "stateMutability": "view",
      "type": "function"
    },
    {
      "inputs": [
        {
          "internalType": "uint256",
          "name": "index",
          "type": "uint256"
        }
      ],
      "name": "tokenByIndex",
      "outputs": [
        {
          "internalType": "uint256",
          "name": "",
          "type": "uint256"
        }
      ],
      "stateMutability": "view",
      "type": "function"
    },
    {
      "inputs": [
        {
          "internalType": "address",
          "name": "owner",
          "type": "address"
        },
        {
          "internalType": "uint256",
          "name": "index",
          "type": "uint256"
        }
      ],
      "name": "tokenOfOwnerByIndex",
      "outputs": [
        {
          "internalType": "uint256",
          "name": "",
          "type": "uint256"
        }
      ],
      "stateMutability": "view",
      "type": "function"
    },
    {
      "inputs": [
        {
          "internalType": "uint256",
          "name": "_tokenId",
          "type": "uint256"
        }
      ],
      "name": "tokenURI",
      "outputs": [
        {
          "internalType": "string",
          "name": "",
          "type": "string"
        }
      ],
      "stateMutability": "view",
      "type": "function"
    },
    {
      "inputs": [],
      "name": "total",
      "outputs": [
        {
          "internalType": "uint256",
          "name": "",
          "type": "uint256"
        }
      ],
      "stateMutability": "view",
      "type": "function"
    },
    {
      "inputs": [],
      "name": "totalSupply",
      "outputs": [
        {
          "internalType": "uint256",
          "name": "",
          "type": "uint256"
        }
      ],
      "stateMutability": "view",
      "type": "function"
    },
    {
      "inputs": [
        {
          "internalType": "address",
          "name": "from",
          "type": "address"
        },
        {
          "internalType": "address",
          "name": "to",
          "type": "address"
        },
        {
          "internalType": "uint256",
          "name": "tokenId",
          "type": "uint256"
        }
      ],
      "name": "transferFrom",
      "outputs": [],
      "stateMutability": "nonpayable",
      "type": "function"
    },
    {
      "inputs": [
        {
          "internalType": "address",
          "name": "newOwner",
          "type": "address"
        }
      ],
      "name": "transferOwnership",
      "outputs": [],
      "stateMutability": "nonpayable",
      "type": "function"
    },
    {
      "inputs": [
        {
          "internalType": "uint256",
          "name": "_qty",
          "type": "uint256"
        },
        {
          "internalType": "bytes32[]",
          "name": "_merkleProof",
          "type": "bytes32[]"
        }
      ],
      "name": "whitelistMint",
      "outputs": [],
      "stateMutability": "payable",
      "type": "function"
    },
    {
      "inputs": [],
      "name": "withdraw",
      "outputs": [],
      "stateMutability": "nonpayable",
      "type": "function"
    },
    {
      "stateMutability": "payable",
      "type": "receive"
    }
  ],
  "bytecode": "0x6080604052600080556001600b60006101000a81548160ff021916908360ff1602179055506064600b60016101000a81548160ff021916908360ff1602179055503480156200004d57600080fd5b506040516200523d3803806200523d833981810160405281019062000073919062000379565b6040518060400160405280600981526020017f446179647265616d7300000000000000000000000000000000000000000000008152506040518060400160405280600881526020017f444159445245414d0000000000000000000000000000000000000000000000008152508160019080519060200190620000f79291906200029b565b508060029080519060200190620001109291906200029b565b5050506200013362000127620001cd60201b60201c565b620001d560201b60201c565b600160088190555082600d60006101000a81548173ffffffffffffffffffffffffffffffffffffffff021916908373ffffffffffffffffffffffffffffffffffffffff16021790555081600960006101000a81548173ffffffffffffffffffffffffffffffffffffffff021916908373ffffffffffffffffffffffffffffffffffffffff16021790555080600a81905550505050620004b1565b600033905090565b6000600760009054906101000a900473ffffffffffffffffffffffffffffffffffffffff16905081600760006101000a81548173ffffffffffffffffffffffffffffffffffffffff021916908373ffffffffffffffffffffffffffffffffffffffff1602179055508173ffffffffffffffffffffffffffffffffffffffff168173ffffffffffffffffffffffffffffffffffffffff167f8be0079c531659141344cd1fd0a4f28419497f9722a3daafe3b4186f6b6457e060405160405180910390a35050565b828054620002a99062000413565b90600052602060002090601f016020900481019282620002cd576000855562000319565b82601f10620002e857805160ff191683800117855562000319565b8280016001018555821562000319579182015b8281111562000318578251825591602001919060010190620002fb565b5b5090506200032891906200032c565b5090565b5b80821115620003475760008160009055506001016200032d565b5090565b6000815190506200035c816200047d565b92915050565b600081519050620003738162000497565b92915050565b60008060006060848603121562000395576200039462000478565b5b6000620003a5868287016200034b565b9350506020620003b8868287016200034b565b9250506040620003cb8682870162000362565b9150509250925092565b6000620003e282620003e9565b9050919050565b600073ffffffffffffffffffffffffffffffffffffffff82169050919050565b6000819050919050565b600060028204905060018216806200042c57607f821691505b6020821081141562000443576200044262000449565b5b50919050565b7f4e487b7100000000000000000000000000000000000000000000000000000000600052602260045260246000fd5b600080fd5b6200048881620003d5565b81146200049457600080fd5b50565b620004a28162000409565b8114620004ae57600080fd5b50565b614d7c80620004c16000396000f3fe6080604052600436106101e75760003560e01c806370a0823111610102578063b88d4fde11610095578063d26ea6c011610064578063d26ea6c0146106de578063d2cab05614610707578063e985e9c514610723578063f2fde38b14610760576101ee565b8063b88d4fde14610624578063c03afb591461064d578063c87b56dd14610676578063cd7c0326146106b3576101ee565b806395d89b41116100d157806395d89b4114610589578063a0712d68146105b4578063a22cb465146105d0578063b1c9fe6e146105f9576101ee565b806370a08231146104e1578063715018a61461051e5780637cb64759146105355780638da5cb5b1461055e576101ee565b80632eb4a7ab1161017a57806344d19d2b1161014957806344d19d2b146104135780634f6ccce71461043e57806355f804b31461047b5780636352211e146104a4576101ee565b80632eb4a7ab1461036b5780632f745c59146103965780633ccfd60b146103d357806342842e0e146103ea576101ee565b806312065fe0116101b657806312065fe0146102c157806318160ddd146102ec57806323b872dd146103175780632ddbd13a14610340576101ee565b806301ffc9a7146101f357806306fdde0314610230578063081812fc1461025b578063095ea7b314610298576101ee565b366101ee57005b600080fd5b3480156101ff57600080fd5b5061021a6004803603810190610215919061343f565b610789565b6040516102279190613c42565b60405180910390f35b34801561023c57600080fd5b506102456108d3565b6040516102529190613c78565b60405180910390f35b34801561026757600080fd5b50610282600480360381019061027d919061350f565b610965565b60405161028f9190613bdb565b60405180910390f35b3480156102a457600080fd5b506102bf60048036038101906102ba91906133d2565b6109ea565b005b3480156102cd57600080fd5b506102d6610b03565b6040516102e3919061401a565b60405180910390f35b3480156102f857600080fd5b50610301610b22565b60405161030e919061401a565b60405180910390f35b34801561032357600080fd5b5061033e600480360381019061033991906132bc565b610b2b565b005b34801561034c57600080fd5b50610355610b3b565b604051610362919061401a565b60405180910390f35b34801561037757600080fd5b50610380610b41565b60405161038d9190613c5d565b60405180910390f35b3480156103a257600080fd5b506103bd60048036038101906103b891906133d2565b610b47565b6040516103ca919061401a565b60405180910390f35b3480156103df57600080fd5b506103e8610d45565b005b3480156103f657600080fd5b50610411600480360381019061040c91906132bc565b610ecd565b005b34801561041f57600080fd5b50610428610eed565b6040516104359190614035565b60405180910390f35b34801561044a57600080fd5b506104656004803603810190610460919061350f565b610f00565b604051610472919061401a565b60405180910390f35b34801561048757600080fd5b506104a2600480360381019061049d91906134c6565b610f53565b005b3480156104b057600080fd5b506104cb60048036038101906104c6919061350f565b610fe9565b6040516104d89190613bdb565b60405180910390f35b3480156104ed57600080fd5b506105086004803603810190610503919061324f565b610fff565b604051610515919061401a565b60405180910390f35b34801561052a57600080fd5b506105336110e8565b005b34801561054157600080fd5b5061055c60048036038101906105579190613412565b611170565b005b34801561056a57600080fd5b506105736111f6565b6040516105809190613bdb565b60405180910390f35b34801561059557600080fd5b5061059e611220565b6040516105ab9190613c78565b60405180910390f35b6105ce60048036038101906105c9919061350f565b6112b2565b005b3480156105dc57600080fd5b506105f760048036038101906105f29190613392565b611410565b005b34801561060557600080fd5b5061060e611591565b60405161061b9190614035565b60405180910390f35b34801561063057600080fd5b5061064b6004803603810190610646919061330f565b6115a4565b005b34801561065957600080fd5b50610674600480360381019061066f919061359c565b611600565b005b34801561068257600080fd5b5061069d6004803603810190610698919061350f565b6116e1565b6040516106aa9190613c78565b60405180910390f35b3480156106bf57600080fd5b506106c861175d565b6040516106d59190613bdb565b60405180910390f35b3480156106ea57600080fd5b506107056004803603810190610700919061324f565b611783565b005b610721600480360381019061071c919061353c565b611843565b005b34801561072f57600080fd5b5061074a6004803603810190610745919061327c565b611b4f565b6040516107579190613c42565b60405180910390f35b34801561076c57600080fd5b506107876004803603810190610782919061324f565b611c51565b005b60007f80ac58cd000000000000000000000000000000000000000000000000000000007bffffffffffffffffffffffffffffffffffffffffffffffffffffffff1916827bffffffffffffffffffffffffffffffffffffffffffffffffffffffff1916148061085457507f5b5e139f000000000000000000000000000000000000000000000000000000007bffffffffffffffffffffffffffffffffffffffffffffffffffffffff1916827bffffffffffffffffffffffffffffffffffffffffffffffffffffffff1916145b806108bc57507f780e9d63000000000000000000000000000000000000000000000000000000007bffffffffffffffffffffffffffffffffffffffffffffffffffffffff1916827bffffffffffffffffffffffffffffffffffffffffffffffffffffffff1916145b806108cc57506108cb82611d49565b5b9050919050565b6060600180546108e2906143ba565b80601f016020809104026020016040519081016040528092919081815260200182805461090e906143ba565b801561095b5780601f106109305761010080835404028352916020019161095b565b820191906000526020600020905b81548152906001019060200180831161093e57829003601f168201915b5050505050905090565b600061097082611db3565b6109af576040517f08c379a00000000000000000000000000000000000000000000000000000000081526004016109a690613ffa565b60405180910390fd5b6005600083815260200190815260200160002060009054906101000a900473ffffffffffffffffffffffffffffffffffffffff169050919050565b60006109f582610fe9565b90508073ffffffffffffffffffffffffffffffffffffffff168373ffffffffffffffffffffffffffffffffffffffff161415610a66576040517f08c379a0000000000000000000000000000000000000000000000000000000008152600401610a5d90613efa565b60405180910390fd5b8073ffffffffffffffffffffffffffffffffffffffff16610a85611dc0565b73ffffffffffffffffffffffffffffffffffffffff161480610ab45750610ab381610aae611dc0565b611b4f565b5b610af3576040517f08c379a0000000000000000000000000000000000000000000000000000000008152600401610aea90613dda565b60405180910390fd5b610afe838383611dc8565b505050565b60003073ffffffffffffffffffffffffffffffffffffffff1631905090565b60008054905090565b610b36838383611e7a565b505050565b600a5481565b600c5481565b6000610b5283610fff565b8210610b93576040517f08c379a0000000000000000000000000000000000000000000000000000000008152600401610b8a90613c9a565b60405180910390fd5b6000610b9d610b22565b905060008060005b83811015610d03576000600360008381526020019081526020016000206040518060400160405290816000820160009054906101000a900473ffffffffffffffffffffffffffffffffffffffff1673ffffffffffffffffffffffffffffffffffffffff1673ffffffffffffffffffffffffffffffffffffffff1681526020016000820160149054906101000a900467ffffffffffffffff1667ffffffffffffffff1667ffffffffffffffff16815250509050600073ffffffffffffffffffffffffffffffffffffffff16816000015173ffffffffffffffffffffffffffffffffffffffff1614610c9757806000015192505b8773ffffffffffffffffffffffffffffffffffffffff168373ffffffffffffffffffffffffffffffffffffffff161415610cef5786841415610ce0578195505050505050610d3f565b8380610ceb9061441d565b9450505b508080610cfb9061441d565b915050610ba5565b506040517f08c379a0000000000000000000000000000000000000000000000000000000008152600401610d3690613f9a565b60405180910390fd5b92915050565b60026008541415610d8b576040517f08c379a0000000000000000000000000000000000000000000000000000000008152600401610d8290613fba565b60405180910390fd5b6002600881905550610d9b611dc0565b73ffffffffffffffffffffffffffffffffffffffff16610db96111f6565b73ffffffffffffffffffffffffffffffffffffffff1614610e0f576040517f08c379a0000000000000000000000000000000000000000000000000000000008152600401610e0690613e9a565b60405180910390fd5b6000610e19611dc0565b73ffffffffffffffffffffffffffffffffffffffff1647604051610e3c90613bc6565b60006040518083038185875af1925050503d8060008114610e79576040519150601f19603f3d011682016040523d82523d6000602084013e610e7e565b606091505b5050905080610ec2576040517f08c379a0000000000000000000000000000000000000000000000000000000008152600401610eb990613fda565b60405180910390fd5b506001600881905550565b610ee8838383604051806020016040528060008152506115a4565b505050565b600b60019054906101000a900460ff1681565b6000610f0a610b22565b8210610f4b576040517f08c379a0000000000000000000000000000000000000000000000000000000008152600401610f4290613d7a565b60405180910390fd5b819050919050565b610f5b611dc0565b73ffffffffffffffffffffffffffffffffffffffff16610f796111f6565b73ffffffffffffffffffffffffffffffffffffffff1614610fcf576040517f08c379a0000000000000000000000000000000000000000000000000000000008152600401610fc690613e9a565b60405180910390fd5b80600e9080519060200190610fe5929190612f94565b5050565b6000610ff482612421565b600001519050919050565b60008073ffffffffffffffffffffffffffffffffffffffff168273ffffffffffffffffffffffffffffffffffffffff161415611070576040517f08c379a000000000000000000000000000000000000000000000000000000000815260040161106790613dfa565b60405180910390fd5b600460008373ffffffffffffffffffffffffffffffffffffffff1673ffffffffffffffffffffffffffffffffffffffff16815260200190815260200160002060000160009054906101000a90046fffffffffffffffffffffffffffffffff166fffffffffffffffffffffffffffffffff169050919050565b6110f0611dc0565b73ffffffffffffffffffffffffffffffffffffffff1661110e6111f6565b73ffffffffffffffffffffffffffffffffffffffff1614611164576040517f08c379a000000000000000000000000000000000000000000000000000000000815260040161115b90613e9a565b60405180910390fd5b61116e600061257c565b565b611178611dc0565b73ffffffffffffffffffffffffffffffffffffffff166111966111f6565b73ffffffffffffffffffffffffffffffffffffffff16146111ec576040517f08c379a00000000000000000000000000000000000000000000000000000000081526004016111e390613e9a565b60405180910390fd5b80600c8190555050565b6000600760009054906101000a900473ffffffffffffffffffffffffffffffffffffffff16905090565b60606002805461122f906143ba565b80601f016020809104026020016040519081016040528092919081815260200182805461125b906143ba565b80156112a85780601f1061127d576101008083540402835291602001916112a8565b820191906000526020600020905b81548152906001019060200180831161128b57829003601f168201915b5050505050905090565b60006112bc610b22565b90506008821115611302576040517f08c379a00000000000000000000000000000000000000000000000000000000081526004016112f990613cfa565b60405180910390fd5b6002600b60009054906101000a900460ff1660ff1614611357576040517f08c379a000000000000000000000000000000000000000000000000000000000815260040161134e90613d3a565b60405180910390fd5b600a5482826113669190614180565b11156113a7576040517f08c379a000000000000000000000000000000000000000000000000000000000815260040161139e90613cba565b60405180910390fd5b348266d529ae9e8600006113bb9190614207565b146113fb576040517f08c379a00000000000000000000000000000000000000000000000000000000081526004016113f290613e7a565b60405180910390fd5b61140c611406611dc0565b83612642565b5050565b611418611dc0565b73ffffffffffffffffffffffffffffffffffffffff168273ffffffffffffffffffffffffffffffffffffffff161415611486576040517f08c379a000000000000000000000000000000000000000000000000000000000815260040161147d90613eba565b60405180910390fd5b8060066000611493611dc0565b73ffffffffffffffffffffffffffffffffffffffff1673ffffffffffffffffffffffffffffffffffffffff16815260200190815260200160002060008473ffffffffffffffffffffffffffffffffffffffff1673ffffffffffffffffffffffffffffffffffffffff16815260200190815260200160002060006101000a81548160ff0219169083151502179055508173ffffffffffffffffffffffffffffffffffffffff16611540611dc0565b73ffffffffffffffffffffffffffffffffffffffff167f17307eab39ab6107e8899845ad3d59bd9653f200f220920489ca2b5937696c31836040516115859190613c42565b60405180910390a35050565b600b60009054906101000a900460ff1681565b6115af848484611e7a565b6115bb84848484612660565b6115fa576040517f08c379a00000000000000000000000000000000000000000000000000000000081526004016115f190613f3a565b60405180910390fd5b50505050565b611608611dc0565b73ffffffffffffffffffffffffffffffffffffffff166116266111f6565b73ffffffffffffffffffffffffffffffffffffffff161461167c576040517f08c379a000000000000000000000000000000000000000000000000000000000815260040161167390613e9a565b60405180910390fd5b60028160ff1611156116c3576040517f08c379a00000000000000000000000000000000000000000000000000000000081526004016116ba90613d5a565b60405180910390fd5b80600b60006101000a81548160ff021916908360ff16021790555050565b60606116ec82611db3565b61172b576040517f08c379a000000000000000000000000000000000000000000000000000000000815260040161172290613e1a565b60405180910390fd5b600e611736836127f7565b604051602001611747929190613ba2565b6040516020818303038152906040529050919050565b600960009054906101000a900473ffffffffffffffffffffffffffffffffffffffff1681565b61178b611dc0565b73ffffffffffffffffffffffffffffffffffffffff166117a96111f6565b73ffffffffffffffffffffffffffffffffffffffff16146117ff576040517f08c379a00000000000000000000000000000000000000000000000000000000081526004016117f690613e9a565b60405180910390fd5b80600960006101000a81548173ffffffffffffffffffffffffffffffffffffffff021916908373ffffffffffffffffffffffffffffffffffffffff16021790555050565b600061184d610b22565b90506000611859611dc0565b6040516020016118699190613b5b565b604051602081830303815290604052805190602001209050600f60003373ffffffffffffffffffffffffffffffffffffffff1673ffffffffffffffffffffffffffffffffffffffff16815260200190815260200160002060009054906101000a900460ff161561190e576040517f08c379a000000000000000000000000000000000000000000000000000000000815260040161190590613e3a565b60405180910390fd5b61195c848480806020026020016040519081016040528093929190818152602001838360200280828437600081840152601f19601f82011690508083019250505050505050600c5483612958565b61199b576040517f08c379a000000000000000000000000000000000000000000000000000000000815260040161199290613dba565b60405180910390fd5b60088511156119df576040517f08c379a00000000000000000000000000000000000000000000000000000000081526004016119d690613cfa565b60405180910390fd5b6001600b60009054906101000a900460ff1660ff1614611a34576040517f08c379a0000000000000000000000000000000000000000000000000000000008152600401611a2b90613d3a565b60405180910390fd5b600a548583611a439190614180565b1115611a84576040517f08c379a0000000000000000000000000000000000000000000000000000000008152600401611a7b90613cba565b60405180910390fd5b348566d529ae9e860000611a989190614207565b14611ad8576040517f08c379a0000000000000000000000000000000000000000000000000000000008152600401611acf90613e7a565b60405180910390fd5b6001600f6000611ae6611dc0565b73ffffffffffffffffffffffffffffffffffffffff1673ffffffffffffffffffffffffffffffffffffffff16815260200190815260200160002060006101000a81548160ff021916908315150217905550611b48611b42611dc0565b86612642565b5050505050565b600080600960009054906101000a900473ffffffffffffffffffffffffffffffffffffffff1690508273ffffffffffffffffffffffffffffffffffffffff168173ffffffffffffffffffffffffffffffffffffffff1663c4552791866040518263ffffffff1660e01b8152600401611bc79190613bdb565b60206040518083038186803b158015611bdf57600080fd5b505afa158015611bf3573d6000803e3d6000fd5b505050506040513d601f19601f82011682018060405250810190611c179190613499565b73ffffffffffffffffffffffffffffffffffffffff161415611c3d576001915050611c4b565b611c47848461296f565b9150505b92915050565b611c59611dc0565b73ffffffffffffffffffffffffffffffffffffffff16611c776111f6565b73ffffffffffffffffffffffffffffffffffffffff1614611ccd576040517f08c379a0000000000000000000000000000000000000000000000000000000008152600401611cc490613e9a565b60405180910390fd5b600073ffffffffffffffffffffffffffffffffffffffff168173ffffffffffffffffffffffffffffffffffffffff161415611d3d576040517f08c379a0000000000000000000000000000000000000000000000000000000008152600401611d3490613cda565b60405180910390fd5b611d468161257c565b50565b60007f01ffc9a7000000000000000000000000000000000000000000000000000000007bffffffffffffffffffffffffffffffffffffffffffffffffffffffff1916827bffffffffffffffffffffffffffffffffffffffffffffffffffffffff1916149050919050565b6000805482109050919050565b600033905090565b826005600084815260200190815260200160002060006101000a81548173ffffffffffffffffffffffffffffffffffffffff021916908373ffffffffffffffffffffffffffffffffffffffff160217905550818373ffffffffffffffffffffffffffffffffffffffff168273ffffffffffffffffffffffffffffffffffffffff167f8c5be1e5ebec7d5bd14f71427d1e84f3dd0314c0f7b2291e5b200ac8c7c3b92560405160405180910390a4505050565b6000611e8582612421565b90506000816000015173ffffffffffffffffffffffffffffffffffffffff16611eac611dc0565b73ffffffffffffffffffffffffffffffffffffffff161480611f085750611ed1611dc0565b73ffffffffffffffffffffffffffffffffffffffff16611ef084610965565b73ffffffffffffffffffffffffffffffffffffffff16145b80611f245750611f238260000151611f1e611dc0565b611b4f565b5b905080611f66576040517f08c379a0000000000000000000000000000000000000000000000000000000008152600401611f5d90613eda565b60405180910390fd5b8473ffffffffffffffffffffffffffffffffffffffff16826000015173ffffffffffffffffffffffffffffffffffffffff1614611fd8576040517f08c379a0000000000000000000000000000000000000000000000000000000008152600401611fcf90613e5a565b60405180910390fd5b600073ffffffffffffffffffffffffffffffffffffffff168473ffffffffffffffffffffffffffffffffffffffff161415612048576040517f08c379a000000000000000000000000000000000000000000000000000000000815260040161203f90613d9a565b60405180910390fd5b6120558585856001612a03565b6120656000848460000151611dc8565b6001600460008773ffffffffffffffffffffffffffffffffffffffff1673ffffffffffffffffffffffffffffffffffffffff16815260200190815260200160002060000160008282829054906101000a90046fffffffffffffffffffffffffffffffff160392506101000a8154816fffffffffffffffffffffffffffffffff02191690836fffffffffffffffffffffffffffffffff1602179055506001600460008673ffffffffffffffffffffffffffffffffffffffff1673ffffffffffffffffffffffffffffffffffffffff16815260200190815260200160002060000160008282829054906101000a90046fffffffffffffffffffffffffffffffff160192506101000a8154816fffffffffffffffffffffffffffffffff02191690836fffffffffffffffffffffffffffffffff16021790555060405180604001604052808573ffffffffffffffffffffffffffffffffffffffff1681526020014267ffffffffffffffff168152506003600085815260200190815260200160002060008201518160000160006101000a81548173ffffffffffffffffffffffffffffffffffffffff021916908373ffffffffffffffffffffffffffffffffffffffff16021790555060208201518160000160146101000a81548167ffffffffffffffff021916908367ffffffffffffffff160217905550905050600060018461226b9190614180565b9050600073ffffffffffffffffffffffffffffffffffffffff166003600083815260200190815260200160002060000160009054906101000a900473ffffffffffffffffffffffffffffffffffffffff1673ffffffffffffffffffffffffffffffffffffffff1614156123b1576122e181611db3565b156123b0576040518060400160405280846000015173ffffffffffffffffffffffffffffffffffffffff168152602001846020015167ffffffffffffffff168152506003600083815260200190815260200160002060008201518160000160006101000a81548173ffffffffffffffffffffffffffffffffffffffff021916908373ffffffffffffffffffffffffffffffffffffffff16021790555060208201518160000160146101000a81548167ffffffffffffffff021916908367ffffffffffffffff1602179055509050505b5b838573ffffffffffffffffffffffffffffffffffffffff168773ffffffffffffffffffffffffffffffffffffffff167fddf252ad1be2c89b69c2b068fc378daa952ba7f163c4a11628f55a4df523b3ef60405160405180910390a46124198686866001612a09565b505050505050565b61242961301a565b61243282611db3565b612471576040517f08c379a000000000000000000000000000000000000000000000000000000000815260040161246890613d1a565b60405180910390fd5b60008290505b6000600360008381526020019081526020016000206040518060400160405290816000820160009054906101000a900473ffffffffffffffffffffffffffffffffffffffff1673ffffffffffffffffffffffffffffffffffffffff1673ffffffffffffffffffffffffffffffffffffffff1681526020016000820160149054906101000a900467ffffffffffffffff1667ffffffffffffffff1667ffffffffffffffff16815250509050600073ffffffffffffffffffffffffffffffffffffffff16816000015173ffffffffffffffffffffffffffffffffffffffff1614612563578092505050612577565b50808061256f90614390565b915050612477565b919050565b6000600760009054906101000a900473ffffffffffffffffffffffffffffffffffffffff16905081600760006101000a81548173ffffffffffffffffffffffffffffffffffffffff021916908373ffffffffffffffffffffffffffffffffffffffff1602179055508173ffffffffffffffffffffffffffffffffffffffff168173ffffffffffffffffffffffffffffffffffffffff167f8be0079c531659141344cd1fd0a4f28419497f9722a3daafe3b4186f6b6457e060405160405180910390a35050565b61265c828260405180602001604052806000815250612a0f565b5050565b60006126818473ffffffffffffffffffffffffffffffffffffffff16612ece565b156127ea578373ffffffffffffffffffffffffffffffffffffffff1663150b7a026126aa611dc0565b8786866040518563ffffffff1660e01b81526004016126cc9493929190613bf6565b602060405180830381600087803b1580156126e657600080fd5b505af192505050801561271757506040513d601f19601f82011682018060405250810190612714919061346c565b60015b61279a573d8060008114612747576040519150601f19603f3d011682016040523d82523d6000602084013e61274c565b606091505b50600081511415612792576040517f08c379a000000000000000000000000000000000000000000000000000000000815260040161278990613f3a565b60405180910390fd5b805181602001fd5b63150b7a0260e01b7bffffffffffffffffffffffffffffffffffffffffffffffffffffffff1916817bffffffffffffffffffffffffffffffffffffffffffffffffffffffff1916149150506127ef565b600190505b949350505050565b6060600082141561283f576040518060400160405280600181526020017f30000000000000000000000000000000000000000000000000000000000000008152509050612953565b600082905060005b6000821461287157808061285a9061441d565b915050600a8261286a91906141d6565b9150612847565b60008167ffffffffffffffff81111561288d5761288c614581565b5b6040519080825280601f01601f1916602001820160405280156128bf5781602001600182028036833780820191505090505b5090505b6000851461294c576001826128d89190614261565b9150600a856128e79190614494565b60306128f39190614180565b60f81b81838151811061290957612908614552565b5b60200101907effffffffffffffffffffffffffffffffffffffffffffffffffffffffffffff1916908160001a905350600a8561294591906141d6565b94506128c3565b8093505050505b919050565b6000826129658584612ee1565b1490509392505050565b6000600660008473ffffffffffffffffffffffffffffffffffffffff1673ffffffffffffffffffffffffffffffffffffffff16815260200190815260200160002060008373ffffffffffffffffffffffffffffffffffffffff1673ffffffffffffffffffffffffffffffffffffffff16815260200190815260200160002060009054906101000a900460ff16905092915050565b50505050565b50505050565b600080549050600073ffffffffffffffffffffffffffffffffffffffff168473ffffffffffffffffffffffffffffffffffffffff161415612a85576040517f08c379a0000000000000000000000000000000000000000000000000000000008152600401612a7c90613f7a565b60405180910390fd5b612a8e81611db3565b15612ace576040517f08c379a0000000000000000000000000000000000000000000000000000000008152600401612ac590613f5a565b60405180910390fd5b60008311612b11576040517f08c379a0000000000000000000000000000000000000000000000000000000008152600401612b0890613f1a565b60405180910390fd5b612b1e6000858386612a03565b6000600460008673ffffffffffffffffffffffffffffffffffffffff1673ffffffffffffffffffffffffffffffffffffffff1681526020019081526020016000206040518060400160405290816000820160009054906101000a90046fffffffffffffffffffffffffffffffff166fffffffffffffffffffffffffffffffff166fffffffffffffffffffffffffffffffff1681526020016000820160109054906101000a90046fffffffffffffffffffffffffffffffff166fffffffffffffffffffffffffffffffff166fffffffffffffffffffffffffffffffff168152505090506040518060400160405280858360000151612c1b919061413a565b6fffffffffffffffffffffffffffffffff168152602001858360200151612c42919061413a565b6fffffffffffffffffffffffffffffffff16815250600460008773ffffffffffffffffffffffffffffffffffffffff1673ffffffffffffffffffffffffffffffffffffffff16815260200190815260200160002060008201518160000160006101000a8154816fffffffffffffffffffffffffffffffff02191690836fffffffffffffffffffffffffffffffff16021790555060208201518160000160106101000a8154816fffffffffffffffffffffffffffffffff02191690836fffffffffffffffffffffffffffffffff16021790555090505060405180604001604052808673ffffffffffffffffffffffffffffffffffffffff1681526020014267ffffffffffffffff168152506003600084815260200190815260200160002060008201518160000160006101000a81548173ffffffffffffffffffffffffffffffffffffffff021916908373ffffffffffffffffffffffffffffffffffffffff16021790555060208201518160000160146101000a81548167ffffffffffffffff021916908367ffffffffffffffff160217905550905050600082905060005b85811015612eb157818773ffffffffffffffffffffffffffffffffffffffff16600073ffffffffffffffffffffffffffffffffffffffff167fddf252ad1be2c89b69c2b068fc378daa952ba7f163c4a11628f55a4df523b3ef60405160405180910390a4612e516000888488612660565b612e90576040517f08c379a0000000000000000000000000000000000000000000000000000000008152600401612e8790613f3a565b60405180910390fd5b8180612e9b9061441d565b9250508080612ea99061441d565b915050612de0565b5080600081905550612ec66000878588612a09565b505050505050565b600080823b905060008111915050919050565b60008082905060005b8451811015612f89576000858281518110612f0857612f07614552565b5b60200260200101519050808311612f49578281604051602001612f2c929190613b76565b604051602081830303815290604052805190602001209250612f75565b8083604051602001612f5c929190613b76565b6040516020818303038152906040528051906020012092505b508080612f819061441d565b915050612eea565b508091505092915050565b828054612fa0906143ba565b90600052602060002090601f016020900481019282612fc25760008555613009565b82601f10612fdb57805160ff1916838001178555613009565b82800160010185558215613009579182015b82811115613008578251825591602001919060010190612fed565b5b5090506130169190613054565b5090565b6040518060400160405280600073ffffffffffffffffffffffffffffffffffffffff168152602001600067ffffffffffffffff1681525090565b5b8082111561306d576000816000905550600101613055565b5090565b600061308461307f84614075565b614050565b9050828152602081018484840111156130a05761309f6145bf565b5b6130ab84828561434e565b509392505050565b60006130c66130c1846140a6565b614050565b9050828152602081018484840111156130e2576130e16145bf565b5b6130ed84828561434e565b509392505050565b60008135905061310481614ca5565b92915050565b60008083601f8401126131205761311f6145b5565b5b8235905067ffffffffffffffff81111561313d5761313c6145b0565b5b602083019150836020820283011115613159576131586145ba565b5b9250929050565b60008135905061316f81614cbc565b92915050565b60008135905061318481614cd3565b92915050565b60008135905061319981614cea565b92915050565b6000815190506131ae81614cea565b92915050565b600082601f8301126131c9576131c86145b5565b5b81356131d9848260208601613071565b91505092915050565b6000815190506131f181614d01565b92915050565b600082601f83011261320c5761320b6145b5565b5b813561321c8482602086016130b3565b91505092915050565b60008135905061323481614d18565b92915050565b60008135905061324981614d2f565b92915050565b600060208284031215613265576132646145c9565b5b6000613273848285016130f5565b91505092915050565b60008060408385031215613293576132926145c9565b5b60006132a1858286016130f5565b92505060206132b2858286016130f5565b9150509250929050565b6000806000606084860312156132d5576132d46145c9565b5b60006132e3868287016130f5565b93505060206132f4868287016130f5565b925050604061330586828701613225565b9150509250925092565b60008060008060808587031215613329576133286145c9565b5b6000613337878288016130f5565b9450506020613348878288016130f5565b935050604061335987828801613225565b925050606085013567ffffffffffffffff81111561337a576133796145c4565b5b613386878288016131b4565b91505092959194509250565b600080604083850312156133a9576133a86145c9565b5b60006133b7858286016130f5565b92505060206133c885828601613160565b9150509250929050565b600080604083850312156133e9576133e86145c9565b5b60006133f7858286016130f5565b925050602061340885828601613225565b9150509250929050565b600060208284031215613428576134276145c9565b5b600061343684828501613175565b91505092915050565b600060208284031215613455576134546145c9565b5b60006134638482850161318a565b91505092915050565b600060208284031215613482576134816145c9565b5b60006134908482850161319f565b91505092915050565b6000602082840312156134af576134ae6145c9565b5b60006134bd848285016131e2565b91505092915050565b6000602082840312156134dc576134db6145c9565b5b600082013567ffffffffffffffff8111156134fa576134f96145c4565b5b613506848285016131f7565b91505092915050565b600060208284031215613525576135246145c9565b5b600061353384828501613225565b91505092915050565b600080600060408486031215613555576135546145c9565b5b600061356386828701613225565b935050602084013567ffffffffffffffff811115613584576135836145c4565b5b6135908682870161310a565b92509250509250925092565b6000602082840312156135b2576135b16145c9565b5b60006135c08482850161323a565b91505092915050565b6135d281614295565b82525050565b6135e96135e482614295565b614466565b82525050565b6135f8816142a7565b82525050565b613607816142b3565b82525050565b61361e613619826142b3565b614478565b82525050565b600061362f826140ec565b6136398185614102565b935061364981856020860161435d565b613652816145ce565b840191505092915050565b6000613668826140f7565b613672818561411e565b935061368281856020860161435d565b61368b816145ce565b840191505092915050565b60006136a1826140f7565b6136ab818561412f565b93506136bb81856020860161435d565b80840191505092915050565b600081546136d4816143ba565b6136de818661412f565b945060018216600081146136f9576001811461370a5761373d565b60ff1983168652818601935061373d565b613713856140d7565b60005b8381101561373557815481890152600182019150602081019050613716565b838801955050505b50505092915050565b600061375360228361411e565b915061375e826145ec565b604082019050919050565b600061377660158361411e565b91506137818261463b565b602082019050919050565b600061379960268361411e565b91506137a482614664565b604082019050919050565b60006137bc60108361411e565b91506137c7826146b3565b602082019050919050565b60006137df602a8361411e565b91506137ea826146dc565b604082019050919050565b6000613802600f8361411e565b915061380d8261472b565b602082019050919050565b6000613825600d8361411e565b915061383082614754565b602082019050919050565b600061384860238361411e565b91506138538261477d565b604082019050919050565b600061386b60258361411e565b9150613876826147cc565b604082019050919050565b600061388e600f8361411e565b91506138998261481b565b602082019050919050565b60006138b160398361411e565b91506138bc82614844565b604082019050919050565b60006138d4602b8361411e565b91506138df82614893565b604082019050919050565b60006138f760158361411e565b9150613902826148e2565b602082019050919050565b600061391a600f8361411e565b91506139258261490b565b602082019050919050565b600061393d60268361411e565b915061394882614934565b604082019050919050565b6000613960600d8361411e565b915061396b82614983565b602082019050919050565b600061398360208361411e565b915061398e826149ac565b602082019050919050565b60006139a6601a8361411e565b91506139b1826149d5565b602082019050919050565b60006139c960328361411e565b91506139d4826149fe565b604082019050919050565b60006139ec60228361411e565b91506139f782614a4d565b604082019050919050565b6000613a0f600083614113565b9150613a1a82614a9c565b600082019050919050565b6000613a3260238361411e565b9150613a3d82614a9f565b604082019050919050565b6000613a5560338361411e565b9150613a6082614aee565b604082019050919050565b6000613a78601d8361411e565b9150613a8382614b3d565b602082019050919050565b6000613a9b60218361411e565b9150613aa682614b66565b604082019050919050565b6000613abe602e8361411e565b9150613ac982614bb5565b604082019050919050565b6000613ae1601f8361411e565b9150613aec82614c04565b602082019050919050565b6000613b0460118361411e565b9150613b0f82614c2d565b602082019050919050565b6000613b27602d8361411e565b9150613b3282614c56565b604082019050919050565b613b4681614337565b82525050565b613b5581614341565b82525050565b6000613b6782846135d8565b60148201915081905092915050565b6000613b82828561360d565b602082019150613b92828461360d565b6020820191508190509392505050565b6000613bae82856136c7565b9150613bba8284613696565b91508190509392505050565b6000613bd182613a02565b9150819050919050565b6000602082019050613bf060008301846135c9565b92915050565b6000608082019050613c0b60008301876135c9565b613c1860208301866135c9565b613c256040830185613b3d565b8181036060830152613c378184613624565b905095945050505050565b6000602082019050613c5760008301846135ef565b92915050565b6000602082019050613c7260008301846135fe565b92915050565b60006020820190508181036000830152613c92818461365d565b905092915050565b60006020820190508181036000830152613cb381613746565b9050919050565b60006020820190508181036000830152613cd381613769565b9050919050565b60006020820190508181036000830152613cf38161378c565b9050919050565b60006020820190508181036000830152613d13816137af565b9050919050565b60006020820190508181036000830152613d33816137d2565b9050919050565b60006020820190508181036000830152613d53816137f5565b9050919050565b60006020820190508181036000830152613d7381613818565b9050919050565b60006020820190508181036000830152613d938161383b565b9050919050565b60006020820190508181036000830152613db38161385e565b9050919050565b60006020820190508181036000830152613dd381613881565b9050919050565b60006020820190508181036000830152613df3816138a4565b9050919050565b60006020820190508181036000830152613e13816138c7565b9050919050565b60006020820190508181036000830152613e33816138ea565b9050919050565b60006020820190508181036000830152613e538161390d565b9050919050565b60006020820190508181036000830152613e7381613930565b9050919050565b60006020820190508181036000830152613e9381613953565b9050919050565b60006020820190508181036000830152613eb381613976565b9050919050565b60006020820190508181036000830152613ed381613999565b9050919050565b60006020820190508181036000830152613ef3816139bc565b9050919050565b60006020820190508181036000830152613f13816139df565b9050919050565b60006020820190508181036000830152613f3381613a25565b9050919050565b60006020820190508181036000830152613f5381613a48565b9050919050565b60006020820190508181036000830152613f7381613a6b565b9050919050565b60006020820190508181036000830152613f9381613a8e565b9050919050565b60006020820190508181036000830152613fb381613ab1565b9050919050565b60006020820190508181036000830152613fd381613ad4565b9050919050565b60006020820190508181036000830152613ff381613af7565b9050919050565b6000602082019050818103600083015261401381613b1a565b9050919050565b600060208201905061402f6000830184613b3d565b92915050565b600060208201905061404a6000830184613b4c565b92915050565b600061405a61406b565b905061406682826143ec565b919050565b6000604051905090565b600067ffffffffffffffff8211156140905761408f614581565b5b614099826145ce565b9050602081019050919050565b600067ffffffffffffffff8211156140c1576140c0614581565b5b6140ca826145ce565b9050602081019050919050565b60008190508160005260206000209050919050565b600081519050919050565b600081519050919050565b600082825260208201905092915050565b600081905092915050565b600082825260208201905092915050565b600081905092915050565b6000614145826142fb565b9150614150836142fb565b9250826fffffffffffffffffffffffffffffffff03821115614175576141746144c5565b5b828201905092915050565b600061418b82614337565b915061419683614337565b9250827fffffffffffffffffffffffffffffffffffffffffffffffffffffffffffffffff038211156141cb576141ca6144c5565b5b828201905092915050565b60006141e182614337565b91506141ec83614337565b9250826141fc576141fb6144f4565b5b828204905092915050565b600061421282614337565b915061421d83614337565b9250817fffffffffffffffffffffffffffffffffffffffffffffffffffffffffffffffff0483118215151615614256576142556144c5565b5b828202905092915050565b600061426c82614337565b915061427783614337565b92508282101561428a576142896144c5565b5b828203905092915050565b60006142a082614317565b9050919050565b60008115159050919050565b6000819050919050565b60007fffffffff0000000000000000000000000000000000000000000000000000000082169050919050565b60006142f482614295565b9050919050565b60006fffffffffffffffffffffffffffffffff82169050919050565b600073ffffffffffffffffffffffffffffffffffffffff82169050919050565b6000819050919050565b600060ff82169050919050565b82818337600083830152505050565b60005b8381101561437b578082015181840152602081019050614360565b8381111561438a576000848401525b50505050565b600061439b82614337565b915060008214156143af576143ae6144c5565b5b600182039050919050565b600060028204905060018216806143d257607f821691505b602082108114156143e6576143e5614523565b5b50919050565b6143f5826145ce565b810181811067ffffffffffffffff8211171561441457614413614581565b5b80604052505050565b600061442882614337565b91507fffffffffffffffffffffffffffffffffffffffffffffffffffffffffffffffff82141561445b5761445a6144c5565b5b600182019050919050565b600061447182614482565b9050919050565b6000819050919050565b600061448d826145df565b9050919050565b600061449f82614337565b91506144aa83614337565b9250826144ba576144b96144f4565b5b828206905092915050565b7f4e487b7100000000000000000000000000000000000000000000000000000000600052601160045260246000fd5b7f4e487b7100000000000000000000000000000000000000000000000000000000600052601260045260246000fd5b7f4e487b7100000000000000000000000000000000000000000000000000000000600052602260045260246000fd5b7f4e487b7100000000000000000000000000000000000000000000000000000000600052603260045260246000fd5b7f4e487b7100000000000000000000000000000000000000000000000000000000600052604160045260246000fd5b600080fd5b600080fd5b600080fd5b600080fd5b600080fd5b600080fd5b6000601f19601f8301169050919050565b60008160601b9050919050565b7f455243373231413a206f776e657220696e646578206f7574206f6620626f756e60008201527f6473000000000000000000000000000000000000000000000000000000000000602082015250565b7f4d696e74696e67206578636565647320746f74616c0000000000000000000000600082015250565b7f4f776e61626c653a206e6577206f776e657220697320746865207a65726f206160008201527f6464726573730000000000000000000000000000000000000000000000000000602082015250565b7f4d696e74696e6720746f6f206d616e7900000000000000000000000000000000600082015250565b7f455243373231413a206f776e657220717565727920666f72206e6f6e6578697360008201527f74656e7420746f6b656e00000000000000000000000000000000000000000000602082015250565b7f4d696e74206e6f74206163746976650000000000000000000000000000000000600082015250565b7f496e76616c696420706861736500000000000000000000000000000000000000600082015250565b7f455243373231413a20676c6f62616c20696e646578206f7574206f6620626f7560008201527f6e64730000000000000000000000000000000000000000000000000000000000602082015250565b7f455243373231413a207472616e7366657220746f20746865207a65726f20616460008201527f6472657373000000000000000000000000000000000000000000000000000000602082015250565b7f4e6f74206f6e20746865206c6973740000000000000000000000000000000000600082015250565b7f455243373231413a20617070726f76652063616c6c6572206973206e6f74206f60008201527f776e6572206e6f7220617070726f76656420666f7220616c6c00000000000000602082015250565b7f455243373231413a2062616c616e636520717565727920666f7220746865207a60008201527f65726f2061646472657373000000000000000000000000000000000000000000602082015250565b7f546f6b656e20646f6573206e6f742065786973742e0000000000000000000000600082015250565b7f416c726561647920636c61696d65640000000000000000000000000000000000600082015250565b7f455243373231413a207472616e736665722066726f6d20696e636f727265637460008201527f206f776e65720000000000000000000000000000000000000000000000000000602082015250565b7f496e76616c69642066756e647300000000000000000000000000000000000000600082015250565b7f4f776e61626c653a2063616c6c6572206973206e6f7420746865206f776e6572600082015250565b7f455243373231413a20617070726f766520746f2063616c6c6572000000000000600082015250565b7f455243373231413a207472616e736665722063616c6c6572206973206e6f742060008201527f6f776e6572206e6f7220617070726f7665640000000000000000000000000000602082015250565b7f455243373231413a20617070726f76616c20746f2063757272656e74206f776e60008201527f6572000000000000000000000000000000000000000000000000000000000000602082015250565b50565b7f455243373231413a207175616e74697479206d7573742062652067726561746560008201527f7220300000000000000000000000000000000000000000000000000000000000602082015250565b7f455243373231413a207472616e7366657220746f206e6f6e204552433732315260008201527f6563656976657220696d706c656d656e74657200000000000000000000000000602082015250565b7f455243373231413a20746f6b656e20616c7265616479206d696e746564000000600082015250565b7f455243373231413a206d696e7420746f20746865207a65726f2061646472657360008201527f7300000000000000000000000000000000000000000000000000000000000000602082015250565b7f455243373231413a20756e61626c6520746f2067657420746f6b656e206f662060008201527f6f776e657220627920696e646578000000000000000000000000000000000000602082015250565b7f5265656e7472616e637947756172643a207265656e7472616e742063616c6c00600082015250565b7f5769746864726177616c206661696c6564000000000000000000000000000000600082015250565b7f455243373231413a20617070726f76656420717565727920666f72206e6f6e6560008201527f78697374656e7420746f6b656e00000000000000000000000000000000000000602082015250565b614cae81614295565b8114614cb957600080fd5b50565b614cc5816142a7565b8114614cd057600080fd5b50565b614cdc816142b3565b8114614ce757600080fd5b50565b614cf3816142bd565b8114614cfe57600080fd5b50565b614d0a816142e9565b8114614d1557600080fd5b50565b614d2181614337565b8114614d2c57600080fd5b50565b614d3881614341565b8114614d4357600080fd5b5056fea2646970667358221220ea2498e032c8db6696fbc1ccc956c81fdf711423a87c37d5a6379f2aa522502664736f6c63430008070033",
  "linkReferences": {},
  "deployedLinkReferences": {}
}